:020000040800F2
:1000000000000220010A0008FD090008F54400086C
:10001000FD090008FD090008FD09000800000000B6
:10002000000000000000000000000000FD090008C2
:10003000FD09000800000000FD09000879440008DF
:10004000FD090008FD090008FD090008FD09000878
:10005000FD090008FD090008FD090008FD09000868
:10006000FD090008FD090008FD090008814000089D
:100070008D400008DD2F000899400008A5400008C9
:1000800045E60008B1350008FD090008FD09000833
:10009000FD090008FD090008FD090008FD09000828
:1000A000FD090008FD090008FD090008FD09000818
:1000B000EDD90008F9D9000805DA0008E53500088F
:1000C000FD090008F1350008FD0900085DD20008AF
:1000D00069D2000879E40008A9E40008DDE400081A
:1000E000FD090008FD09000800000000FD090008E6
:1000F000FD090008FD090008FD090008FD090008C8
:10010000FD090008FD09000811DA000875D2000891
:1001100011E5000845E50008FD090008FD09000893
:10012000FD090008FD09000899D20008CDD2000899
:1001300079E60008FD090008FD090008FD0900082E
:1001400000000000000000000000000000000000AF
:10015000FD090008FD090008FD09000879E500080F
:10016000FD350008FD09000889440008AD44000879
:10017000FD090008D1440008FD090008FD09000838
:10018000FD090008FD090008ADE50008DDE50008EF
:1001900081D200088DD20008FD090008FD09000881
:1001A000FD090008FD090008FD090008FD09000817
:1001B000A13D0008FD090008FD090008FD0900082F
:1001C000FD090008FD090008FD090008FD090008F7
:1001D000FD090008FD090008FD090008FD090008E7
:1001E000FD090008FD090008FD090008FD090008D7
:1001F000FD090008FD090008FD090008FD090008C7
:10020000FD090008FD090008FD090008FD090008B6
:10021000FD090008FD090008FD090008FD090008A6
:10022000FD090008FD090008FD09000800000000A4
:10023000FD090008FD09000800000000FD09000894
:10024000FD090008FD090008FD090008FD09000876
:10025000FD090008FD090008FD090008FD09000866
:10026000FD090008FD090008FD090008FD09000856
:10027000FD090008FD09000811E600080000000063
:10028000FD090008FD090008FD0900080000000044
:0802900000000000FD09000858
:1002A00010B5054C237833B9044B13B10448AFF3B0
:1002B00000800123237010BDE8030024000000002B
:1002C0008057010808B5034B1BB103490348AFF33E
:1002D000008008BD00000000EC03002480570108E6
:1002E00001F0FF01102A2BDB10F0070F08D010F8E7
:1002F000013B013A8B422DD010F0070F42B3F6D1EB
:10030000F0B441EA012141EA014122F007047FF003
:1003100000070023F0E80256083C85EA010586EA5A
:10032000010685FA47F5A3FA87F586FA47F6A5FA96
:1003300087F68EB9EED1F0BC01F0FF0102F00702A2
:1003400032B110F8013B013A83EA010313B1F8D14D
:100350000020704701387047002D06BF354603382E
:10036000073815F0010F07D1013015F4807F02BF67
:10037000013015F4C03F0130F0BC0138704700BFB8
:1003800081F0004102E000BF83F0004330B54FEA46
:1003900041044FEA430594EA050F08BF90EA020FB3
:1003A0001FBF54EA000C55EA020C7FEA645C7FEA46
:1003B000655C00F0E2804FEA5454D4EB5555B8BF69
:1003C0006D420CDD2C4480EA020281EA030382EADA
:1003D000000083EA010180EA020281EA0303362D6C
:1003E00088BF30BD11F0004F4FEA01314FF4801C3F
:1003F0004CEA113102D0404261EB410113F0004F51
:100400004FEA03334CEA133302D0524263EB430307
:1004100094EA050F00F0A780A4F10104D5F1200EA5
:100420000DDB02FA0EFC22FA05F2801841F1000100
:1004300003FA0EF2801843FA05F359410EE0A5F1D4
:1004400020050EF1200E012A03FA0EFC28BF4CF005
:10045000020C43FA05F3C01851EBE37101F00045BB
:1004600007D54FF0000EDCF1000C7EEB00006EEBC8
:100470000101B1F5801F1BD3B1F5001F0CD3490852
:100480005FEA30004FEA3C0C04F101044FEA4452A9
:1004900012F5800F80F09A80BCF1004F08BF5FEA30
:1004A000500C50F1000041EB045141EA050130BD10
:1004B0005FEA4C0C404141EB0101013C28BFB1F522
:1004C000801FE9D291F0000F04BF01460020B1FA6D
:1004D00081F308BF2033A3F10B03B3F120020CDA40
:1004E0000C3208DD02F1140CC2F10C0201FA0CF01E
:1004F00021FA02F10CE002F11402D8BFC2F1200C83
:1005000001FA02F120FA0CFCDCBF41EA0C01904038
:10051000E41AA2BF01EB0451294330BD6FEA040481
:100520001F3C1CDA0C340EDC04F11404C4F120026C
:1005300020FA04F001FA02F340EA030021FA04F37E
:1005400045EA030130BDC4F10C04C4F1200220FAD5
:1005500002F001FA04F340EA0300294630BD21FA13
:1005600004F0294630BD94F0000F83F4801306BFD9
:1005700081F480110134013D4EE77FEA645C18BFCD
:100580007FEA655C29D094EA050F08BF90EA020F64
:1005900005D054EA000C04BF1946104630BD91EA5C
:1005A000030F1EBF0021002030BD5FEA545C05D15F
:1005B0004000494128BF41F0004130BD14F580049E
:1005C0003CBF01F5801130BD01F0004545F0FE4112
:1005D00041F470014FF0000030BD7FEA645C1ABF47
:1005E000194610467FEA655C1CBF0B46024650EA7E
:1005F000013406BF52EA033591EA030F41F40021AA
:1006000030BD00BF90F0000F04BF0021704730B52F
:100610004FF4806404F132044FF000054FF0000104
:1006200050E700BF90F0000F04BF0021704730B5C5
:100630004FF4806404F1320410F0004548BF40429A
:100640004FF000013EE700BF42004FEAE2014FEAEF
:1006500031014FEA02701FBF12F07F4393F07F4FCA
:1006600081F06051704732F07F4208BF704793F0CD
:100670007F4F04BF41F40021704730B54FF46074E0
:1006800001F0004521F000411CE700BF50EA0102E3
:1006900008BF704730B54FF000050AE050EA01028C
:1006A00008BF704730B511F0004502D5404261EBFC
:1006B00041014FF4806404F132045FEA915C3FF43D
:1006C000D8AE4FF003025FEADC0C18BF03325FEADA
:1006D000DC0C18BF033202EBDC02C2F1200300FA8B
:1006E00003FC20FA02F001FA03FE40EA0E0021FAB0
:1006F00002F11444BDE600BF53B94AB9002908BF4E
:1007000000281CBF4FF0FF314FF0FF3000F074B9EC
:10071000ADF1080C6DE904CE00F006F8DDF804E058
:10072000DDE9022304B070472DE9F047089D044637
:100730008E46002B4DD18A42944669D9B2FA82F294
:1007400052B101FA02F3C2F1200120FA01F10CFAD0
:1007500002FC41EA030E94404FEA1C48210CBEFB08
:10076000F8F61FFA8CF708FB16E341EA034306FB91
:1007700007F199420AD91CEB030306F1FF3080F020
:100780001F81994240F21C81023E63445B1AA4B26D
:10079000B3FBF8F008FB103344EA034400FB07F70F
:1007A000A7420AD91CEB040400F1FF3380F00A8150
:1007B000A74240F207816444023840EA0640E41B45
:1007C00000261DB1D4400023C5E900433146BDE8F1
:1007D000F0878B4209D9002D00F0EF800026C5E993
:1007E000000130463146BDE8F087B3FA83F6002EAB
:1007F0004AD18B4202D3824200F2F980841A61EB23
:10080000030301209E46002DE0D0C5E9004EDDE740
:1008100002B9FFDEB2FA82F2002A40F09280A1EB28
:100820000C014FEA1C471FFA8CFE0126200CB1FB7D
:10083000F7F307FB131140EA01410EFB03F0884276
:1008400008D91CEB010103F1FF3802D2884200F203
:10085000CB804346091AA4B2B1FBF7F007FB101195
:1008600044EA01440EFB00FEA64508D91CEB040433
:1008700000F1FF3102D2A64500F2BB800846A4EB8E
:100880000E0440EA03409CE7C6F12007B34022FA79
:1008900007FC4CEA030C20FA07F401FA06F31C43A8
:1008A000F9404FEA1C4900FA06F3B1FBF9F8200CB5
:1008B0001FFA8CFE09FB181140EA014108FB0EF0FB
:1008C000884202FA06F20BD91CEB010108F1FF3A4B
:1008D00080F08880884240F28580A8F10208614457
:1008E000091AA4B2B1FBF9F009FB101144EA014165
:1008F00000FB0EFE8E4508D91CEB010100F1FF3410
:100900006CD28E456AD90238614440EA0840A0FBA7
:100910000294A1EB0E01A142C846A64656D353D07D
:100920005DB1B3EB080261EB0E0101FA07F722FAA1
:1009300006F3F1401F43C5E9007100263146BDE8CA
:10094000F087C2F12003D8400CFA02FC21FA03F32D
:10095000914001434FEA1C471FFA8CFEB3FBF7F0AE
:1009600007FB10360B0C43EA064300FB0EF69E42D3
:1009700004FA02F408D91CEB030300F1FF382FD26C
:100980009E422DD9023863449B1B89B2B3FBF7F614
:1009900007FB163341EA034106FB0EF38B4208D9ED
:1009A0001CEB010106F1FF3816D28B4214D9023E2E
:1009B0006144C91A46EA004638E72E46284605E74C
:1009C0000646E3E61846F8E64B45A9D2B9EB02081D
:1009D00064EB0C0E0138A3E74646EAE7204694E7AD
:1009E0004046D1E7D0467BE7023B614432E73046E0
:1009F00009E76444023842E7704700BFFEE700BFE2
:100A00000B480C4A904203D0121A0B4913F0D2F94A
:100A10000A480B4A904203D0121A002113F0D8F969
:100A200003F098FF13F0A2F900F05CFBFEE700BFB3
:100A300000000024E8030024B0570108E803002464
:100A4000E03E0024704700BF704700BF704700BF02
:100A5000704700BF704700BF704700BF704700BFBE
:100A6000704700BF704700BF10B5002104466248C0
:100A700002F058FADFED617ADFED616AB0EE677A75
:100A80009FED606A604BA0EE267AC7FE277AC7FE0C
:100A9000E67AF4EEC67AC3ED007AF1EE10FA4CBFB6
:100AA00001200020002C14BF002000F001000028CD
:100AB00040F09E809FED557AF4EEC77AF1EE10FA81
:100AC00010DD9FED537AF4EEC77AF1EE10FA4CBFC9
:100AD00001230023012C14BF002303F00103002B8A
:100AE00040F087809FED4A7AF4EEC77AF1EE10FA73
:100AF0000FDD9FED487AF4EEC77AF1EE10FA4CBFA5
:100B000001230023022C14BF002303F00103002B58
:100B10006FD19FED407AF4EEC77AF1EE10FA0FDD57
:100B20009FED3D7AF4EEC77AF1EE10FA4CBF012347
:100B30000023032C14BF002303F00103002B58D122
:100B40009FED357AF4EEC77AF1EE10FA0FDD9FEDE6
:100B5000337AF4EEC77AF1EE10FA4CBF012300238A
:100B6000042C14BF002303F00103002B41D19FED9F
:100B70002B7AF4EEC77AF1EE10FA0EDD9FED287AAB
:100B8000F4EEC77AF1EE10FA4CBF01230023052CD6
:100B900014BF002303F001035BBB9FED217AF4EE49
:100BA000C77AF1EE10FA0EDD9FED1E7AF4EEC77AE9
:100BB000F1EE10FA4CBF01230023062C14BF0023D2
:100BC00003F00103ABB99FED177AF4EEC77AF1EEAB
:100BD00010FA0DDD9FED147AF4EEC77AF1EE10FAFB
:100BE0004CBF01200020072C14BF002000F00100A2
:100BF00010BD184610BD00BF1C04002400000000FA
:100C000000404E450000C84248040024000048430C
:100C10000000164400007A440000AF440000E144A4
:100C2000008009450080224500803B452DE9F843BE
:100C3000DFF884801A4F1B4E08F108091A4D44460C
:100C4000A4EB0800FFF710FF184B68B11B68032BDB
:100C500007D8DFE803F01F1A15023B7883F0010381
:100C60003B70134B01221A700134013701360135F4
:100C70004C45E5D103F0B0FC0E4B1860BDE8F8839D
:100C8000237883F001032370EBE72B7883F00103D3
:100C90002B70E6E7337883F001033370E1E700BFA0
:100CA000AC0800243C060024B40700244C040024B3
:100CB0004C060024440600246405002400000000C3
:100CC00008B59FED230A234810F0C8FDDFED226A26
:100CD0009FED227AB6EE000A87FE267A9FED184B2A
:100CE000B7EEC77A1E4B1F48B7EE006AC0FE266AF1
:100CF00027EE047BC6FEC66AC3ED016AC3ED036A34
:100D00009FED115BB7EEC77BB7EEC77A37EE457B39
:100D1000B7EEC77B83ED047A11F078F99FED120AE4
:100D2000104811F0A3F99FED110A0E4811F08EF949
:100D30009FED0F0A0B48BDE8084011F075B900BFE0
:100D4000333333333333FB3F333333333333F33FD3
:100D50000000C8426C05002400000000CDCCCC3E51
:100D600050040024F8070024CDCCCC3D3333333F6E
:100D70000000164338B5374C2DED028B204601F0AC
:100D80009BFE354801F098FE2379002B42D1A37ACF
:100D9000314DAA7AFF2A4FD04FF07E512F4A116071
:100DA000FF2B02D0BDEC028B38BD03F013FC07EE25
:100DB000900A94ED037AF8EE677A9FED298A77EE30
:100DC000C77AF4EEC87AF1EE10FAEBDDAB7AFF2BBE
:100DD000E8D103F0FFFB07EE900A95ED037AF8EEF9
:100DE000677A77EEC77AF4EEC87AF1EE10FAD9DDB9
:100DF00000231C481C4C1D491D4AC0E90033C4E9AE
:100E000000331C48C1E90033C2E90033BDEC028B5A
:100E1000037038BDA37A7F2BBAD117480E4D0268F4
:100E20000132514202F0030201F0030158BF4A426D
:100E30000260AA7AFF2AAFD1104A127822B14FF08D
:100E40008041064A1160ABE74FF07C51034A1160C4
:100E5000A6E700BF50060024B8080024C8080024F4
:100E60000000FA4464050024AC0800243C06002479
:100E7000B40700244C0600244C040024080000247D
:100E800010B51C4801211C4C02F04CF819480221F5
:100E900084ED000A02F046F8B3EE0E7A174BD4ED5B
:100EA000004AD3ED005AF0EE477A9FED156A9FEDA8
:100EB000155ADFED156AE4EE867A144AC7FE877A82
:100EC000C7FEC57A67EEA57A82ED000AB6EE006A23
:100ED0000F4B104887EEA67AB4EEC60ABDE8104064
:100EE000F1EE10FACCBF012200221A7037EE070A89
:100EF00011F0D8BC1C040024B4080024C808002445
:100F000000005C4300007A43000070424806002461
:100F100008000024CC08002410B54148414C2DEDB8
:100F2000028B00F087FBB0EE408A3F48B1EE000A2A
:100F3000F0EE480A11F08AFCB0EE480A3B4810F087
:100F40008BFAB0EE480A3A4811F09EF8DFED396AA4
:100F50009FED397AF7EE003A87FE267A9FED2C5BFB
:100F6000B7EEC77A9FED356A86FE266A9FED2A4B5B
:100F700027EE057B002386FE636ADFED315A04F11C
:100F80002C0026EE063AC4ED076AB0EE480AC4ED1E
:100F9000086AC4ED096A85EE885AC4ED0A6A85FEBE
:100FA000265A84ED053A85FE635AB7EEC77B84ED79
:100FB000025A84ED016AF6EE005A2383B7EEC77A2F
:100FC00084ED008AC5FEA65AC5FEE35A37EE447B7F
:100FD000C4ED035AB7EEC77B84ED047A10F050FCE1
:100FE000204694ED000A443011F0FEFA204694EDBC
:100FF000000A903011F0F8FAB0EE480A1148BDEC42
:10100000028BBDE8104010F021BD00BFAFF300809F
:10101000333333333333FB3F333333333333F33F00
:101020000404002450040024CC0800246C0500248F
:101030006006002400000000CDCC4C3ECDCC4C3FDF
:1010400000803B45F807002470B5234C92B0002582
:10105000032620468DF800508DF8016000F00AFB51
:1010600000991E4801F00EFD062320468DF804501D
:101070008DF8053000F0FEFA01991834184801F097
:1010800001FDFFF749FF02238DF8095005A88DF8EF
:101090000830029901F03EFD07238DF80C500DF148
:1010A00025008DF80D30039901F034FD01230DF179
:1010B00036008DF810308DF81130049901F02AFDBA
:1010C0000423324605A9204601F032FD204601F0F6
:1010D00013FF12B070BD00BF0404002450060024AA
:1010E000B808002408B500210E4800F033FB0421A5
:1010F0000C4800F0A3FA02210A4800F07FFA002110
:10110000084800F0BBFA084CFFF79EFF0749054866
:1011100000F070FA21680348C94301F0010100F0B2
:10112000ADFAF7E704040024BC070024A914000862
:10113000DFED827AB0EE000AD0ED040A60EEE70A35
:1011400030B52DED068B9FED7E8A044683B00D46AB
:1011500060EE880A11F03CFCD4ED040ADFED797AE8
:10116000F0EE409AB0EE000A60EEE70A60EE880A00
:1011700011F02EFCB0EE409A002D40F0A980637E65
:10118000002B40F0A58094ED020A04F12C002546C6
:10119000DFED6DAA30EE000A10F07AFB9FED6B6A6E
:1011A000D4ED006AB0EE40AA9FED697AB0EE000A75
:1011B000C6EE268AD4ED037ADFED610A443567EE88
:1011C000877A67EEA00A11F003FCDFED626AD4EDC6
:1011D000007A284686EEA77A68EE808AC8FEAA8A38
:1011E000C8FEC78A27EEA80A11F086FAF1EE087A3F
:1011F000B0EE080A94ED037A2846A7EE270A11F00C
:10120000DFFAB0EE4A0A284611F012FAF7EE006A49
:10121000D4ED055AB3EE007A94ED086AB6EE005AA2
:1012200076EEE54AD4ED027A94ED1F8AA4EE877A31
:1012300067EE277AC7FEAA7AC7FEC57A77EE867A66
:10124000F4EEE67AC4ED087AF1EE10FA60DAD4ED45
:10125000096AB6EE005A94ED017A36EEC86AD4ED0A
:10126000076AD4ED047AF4EEC56A67EE277AA6EE33
:10127000258AF1EE10FAB7EE007AC4ED0A7A42DD63
:101280009FED356AA9EEC67A237E26EE877A204640
:1012900094ED000A002B00F1900084ED077A47FEE0
:1012A000277A27EE888A28EE800A019011F024FA26
:1012B0000198B6EE000A11F083FAB0EE480A0198E0
:1012C00011F0B6F994ED310A03B0BDEC068B30BDD8
:1012D000F7EE006A94ED047AB6EE006A94ED015AD6
:1012E000F7EE087ADFED1D5A76EEC76A9FED1C7A9D
:1012F0000023A5EE257AE6EE867A637667EE877A96
:10130000C4ED077A3FE79FED176AA9EE467ABBE77F
:1013100077EEE67AC4ED087A12F062FD07EE900AE5
:10132000FEEE006A9FED107AF8EEE77AD4ED055AEA
:10133000E7EE876AC4ED096A8BE700BF0000A842A8
:10134000ABAAAA3D000010420000000000001643B6
:101350000000904200007A46A69B443B3333333F63
:101360009A99993E0AD7233B0000003070B5444C4F
:1013700044482DED048B11F07BFA434A2368061E86
:101380000546D35C18BF01260BB1002E38D10021D1
:101390003E4810F0A9F83E4A2368B0EE408AD35C7C
:1013A0000BB1002E37D100213A4810F0CBFE3A4A5B
:1013B0002368B0EE409AD35C0BB1002E36D10021E9
:1013C0003648FFF7B5FE364A2368F0EE408AD35C14
:1013D0000BB1002E35D10021324810F0B3FBF6EEF0
:1013E000007AB1EE067AA9EE278AA8EE878AA0EEE7
:1013F000278A002D33D1B0EE480ABDEC048B70BDB6
:101400000121224810F070F8214A2368B0EE408A8A
:10141000D35C002BC7D001211E4810F093FE1E4A5A
:101420002368B0EE409AD35C002BC8D001211B4842
:10143000FFF77EFE1A4A2368F0EE408AD35C002B49
:10144000C9D00121174810F07DFBF6EE007AB1EE0D
:10145000067AA9EE278AA8EE878AA0EE278A236853
:1014600001335A4203F0070302F0070258BF534208
:101470002360FFF725FCB0EE480ABDEC048B70BD7D
:10148000BC070024CC0800243C0600246C05002482
:10149000B4070024600600246405002450040024DE
:1014A000AC080024F80700242DE9F04190460E46D0
:1014B00003F092F8104A114B12681B68801A984288
:1014C00001D9FFF7B3FBFFF755FCFFF7D9FCB8F1E3
:1014D000000F0FD000247068A70000EB84050134D2
:1014E000FFF744FF3368A04585ED000A3B4483EDD8
:1014F000000AF0D1BDE8F081440600240400002475
:1015000038B525480023254C036043612246036219
:10151000234D244911F0D6F922462349234811F0DE
:10152000D1F922462946224811F0CCF92246294613
:10153000204811F0C7F922461F49204811F0C2F98E
:1015400022461F491F4811F0BDF922461E491F4877
:101550001F4D11F0B7F922461E491F4811F0B2F98C
:1015600022461E491E4811F0ADF9224629461D4863
:1015700011F0A8F9224629461B4811F0A3F922468A
:1015800029461A4811F09EF9224629461848BDE816
:10159000384011F097B900BF040400240000002473
:1015A000490A00084D0A0008450A000840040024C2
:1015B00050060024B8080024610A0008CC08002462
:1015C000550A00086C050024650A00085004002430
:1015D000510A0008590A0008F80700245D0A0008AB
:1015E00060060024040600247C0700242C05002447
:1015F000C0070024143001F011BA00BF38B500F163
:10160000140504462DED028B284601F0C3F9284647
:1016100001F0BCF92846B0EE408A01F0A5F9D0ED02
:10162000007AF8EE677A88EE277ABDEC028B84EDBB
:101630000E7A38BD143001F0A9B900BF38B500F1F9
:10164000140504462DED028B284601F091F9284639
:1016500001F09CF92846B0EE408A01F085F9D0ED02
:10166000007AF8EE677A88EE277ABDEC028B84ED7B
:101670000E7A38BD90ED0E0A704700BF253001F09C
:1016800043BE00BFF0B5032399B000270125129394
:1016900006462C4B09A81595CDE90E7340F204536C
:1016A000ADF84030284BCDE91357099301F042FDC6
:1016B00009A801F01BFE002836D1244B04AF0446D4
:1016C0000090CDF842301023394604958DF8203033
:1016D0001F4BCDE91650CDE906506846059301F041
:1016E00093FF0823009A01A909A8ADF804508DF8CA
:1016F000064009940295039300F0E4F800230EA934
:1017000038463024049302F047FD03224FF07E5305
:1017100009A906F114000B930C93CDE90942049A30
:1017200001F0EAF819B0F0BD40F60132074B169708
:1017300004AFADF824200998CDF84230179500F099
:1017400081F8DBE704020404030300010406040338
:101750000704010B2DE9F04304462DED028B83B005
:10176000002948D0012140F2011200230091ADF878
:1017700004208DF80630304A0126304B271D3049B1
:1017800004F12908626040F20272A36040F6066329
:10179000E16004F125092682A4F8252084F8276059
:1017A000A4F8293084F82B6003F08AF869460546CE
:1017B00048B304F130008DF8066002F0DFFF072D1A
:1017C00034D104F114052046FFF75CFF284601F0F0
:1017D000DDF82846B0EE408A01F0C6F8D0ED007A78
:1017E000F8EE677A88EE277A84ED0E7A03B0BDECC6
:1017F000028BBDE8F08340F2011300918DF80610D2
:10180000ADF80430B7E704F1300002F0B7FF394615
:10181000204602F041F9484601F08CFC404601F0B8
:1018200089FC04F1120000F077F9CAE73946204636
:1018300002F032F9C5E700BF0508050905070506EE
:10184000050A060610B584B003460124ADF804006D
:1018500003A8ADF80C30ADF80E4001F06BFC21464A
:1018600003A801F051FD204602F0BCFE002103A8B0
:1018700001F04AFD204602F0B5FE214603A801F022
:1018800043FD04B010BD00BF10B5C2F3002384B007
:101890000C46017C8DF80D2043EA4402FA24022311
:1018A0008DF80C2003AA009401F044FF18B1012424
:1018B000204604B010BD04460A2002F093FE2046E4
:1018C00004B010BD034670B543F8042B044684B041
:1018D00007C983E80700A37983B91A210B461E22A2
:1018E000FA2523742046ADF80C20022303AA0095A4
:1018F00001F020FF28B1012004B070BD1B210B4670
:10190000EDE70A2002F06EFE4FF4B8520095022374
:10191000ADF80C20204603AA217C01F00BFF002823
:10192000E9D10A2002F05EFE41F202720095022324
:10193000ADF80C20204603AA217C01F0FBFE002814
:10194000D9D10A2002F04EFE042200950223ADF800
:101950000C20204603AA217C01F0ECFE0028CAD10D
:101960000A2002F03FFE062200950223ADF80C206B
:10197000204603AA217C01F0DDFE0028BBD10A200D
:1019800002F030FE41F2082200950223ADF80C204F
:10199000204603AA217C01F0CDFE0028ABD10A200D
:1019A000064602F01FFE0095022303AA217C204672
:1019B000ADF80C6001F0BEFE00289CD1304602F06C
:1019C00011FE009522790C232046002A8DF80C3058
:1019D00003AA4FF0020314BF622142218DF80D10BB
:1019E000217C01F0A7FE002885D1304602F0FAFDE7
:1019F0002279D4E902310B43DBB20AB943F0400348
:101A000062790AB143F020030E22FA258DF80D30D9
:101A10002046009502238DF80C2003AA217C01F0BA
:101A200089FE00287FF467AF0A2002F0DBFD102258
:101A300000950223ADF80C20204603AA217C01F07A
:101A400079FE00287FF457AF0A2002F0CBFD122167
:101A500000950223ADF80C1003AA217C204601F06A
:101A600069FE00287FF447AF0A2002F0BBFD012287
:101A700009212046FFF708FF003818BF01203BE787
:101A8000F0B5102387B0234C012200250126002742
:101A900002A920460195CDE902234FF48052CDE9F9
:101AA000046709F0C5FC642003F0B0F902A94FF403
:101AB00080522046CDE9046702261027CDE902674F
:101AC00009F0B6FC0322102302A92046CDE9022327
:101AD00000230422CDE904234FF4805209F0A8FC2E
:101AE00040F23223042202A9019310232046CDE9BB
:101AF0000223019A012305924FF48052049309F0C6
:101B000097FC40F60601204609F0B2FC284607B0D3
:101B1000F0BD00BFE40800241C4B00221C494FF01C
:101B2000400C30B5054689B00220596007219A6003
:101B30001A620124DA620A224FF4006EDC60069217
:101B40002022CDE9000104200821CDE90201032073
:101B50001021CDE9040108206946C3E904024FF4CD
:101B6000C072181DC3E906C24FF48052C3E909E2EE
:101B700009F034FC38B92846FFF782FF003818BF57
:101B8000012009B030BD204609B030BDE008002476
:101B900040410052614A0021D0B513688EB00A91CD
:101BA000002B40F0B9805E4B01214FF683700C246E
:101BB00011600221D3F8D4200026032742F480527A
:101BC000C3F8D420D3F8D42002F480520092009AB3
:101BD000D3F8E02042F01002C3F8E020D3F8E02070
:101BE00002F010020192019AD3F8E02042F0400284
:101BF000C3F8E020D3F8E02002F040020292029AFB
:101C0000D3F8E02042F00802C3F8E020D3F8E02047
:101C100002F008020392039AD3F8E02042F48072A3
:101C2000C3F8E020D3F8E02002F480720492049A12
:101C3000D3F8E02042F08002C3F8E020D3F8E0209F
:101C400002F080020592059AD3F8E02042F02002CB
:101C5000C3F8E020D3F8E02002F020020692069AB2
:101C6000D3F8E02042F00402C3F8E020D3F8E030DB
:101C70000C9403F0040307930323079A0B93CDE915
:101C8000080108A9274804F047FF48F23712022349
:101C900008A925480C94CDE90823CDE90A6704F08A
:101CA0003BFF4CF20372022308A920480C94CDE9B3
:101CB0000823CDE90A6704F02FFF40F2FF620223F8
:101CC00008A91B480C94CDE90823CDE90A6704F064
:101CD00023FF4FF60C72022308A916480C94CDE995
:101CE0000823CDE90A6704F017FF4FF63F020223ED
:101CF00008A911480C94CDE90823CDE90A6704F03E
:101D00000BFF2022022308A90A480C94CDE90A6798
:101D1000CDE9082304F000FF0EB0D0BDDC0800249C
:101D2000004402580010025800180258000C0258D3
:101D300000200258001C0258001402582DE9F04FF0
:101D4000DFF8108406460D46144608F118002DED04
:101D5000028B89B000AF02F017FBD8F8183073B3CC
:101D6000D8F81C30D8F80490002B43690BBF4FF013
:101D7000080A4FF0100A4FF0020B4FF0040BB9F1B4
:101D8000000F2AD0A200EA46012B02F1070222F03E
:101D90000702ADEB020D6846ADEB020D694600F09F
:101DA0003F81022B00F0D680002B6FD02246C8471F
:101DB000D5462437BD46BDEC028BBDE8F08FD8F880
:101DC0001C30002BF5D0D8F804904FF0080A4FF0E3
:101DD000020B4369B9F1000FD4D1FB61D8F8003090
:101DE000BB61002BE5D0D54802F040FB6B46BBF150
:101DF000020F786108EE103AFB6900F083816A46B1
:101E00005146A2EBC40295466200EA46B2FBFBF2E1
:101E1000AAEBC40085460AEB8200EE46F861ADEB02
:101E2000010DF8690EEB820CC7F810C0EC46ADEB63
:101E3000010D00EB8201CCF80400CCF8081001EB96
:101E400082013869E946CCF80C1000EB8201CCF82D
:101E500000A001EB8202C9E900E0C9E90212012BEE
:101E600000F06483022B00F06C82002B00F0808174
:101E7000620849466046BB69984718EE103A243715
:101E80009D46BD46BDEC028BBDE8F08F002C8DD089
:101E90001A46D8ED0C6A9FEDB27A8446331D36F9A6
:101EA00022E00CF1080C07EE90EA33F922E002324E
:101EB000F8EEE77A944267EE877A67EEA67A4CED01
:101EC000027A07EE90EAF8EEE77A67EE877A67EE35
:101ED000A67A4CED017AE2D8F9612246C847984EBD
:101EE000D8ED0D6A0020F9692B1D9FED9E7A9FEDBC
:101EF0009E6ADFED9E5A22E0F4EEC67AF1EE10FA09
:101F0000C0F2C88447F6FE72D1ED017A45F8202070
:101F100066EEA77AF4EEC77AF1EE10FA40F2F0809E
:101F2000F4EEC67AF1EE10FAC0F2D58447F6FE72EE
:101F300043F820200230083184427FF639AFD1EDDA
:101F4000007A66EEA77AF4EEC77AF1EE10FAD3D8EB
:101F50003246D9E7002C3FF429AFD8ED0C6A84460D
:101F60009FED787A0022331D8E4656F822100CF130
:101F7000080C07EE901A53F822100232F8EEE77AB6
:101F8000944267EE877A67EEA67A4CED027A07EE06
:101F9000901AF8EEE77A67EE877A67EEA67A4CED4C
:101FA000017AE2D871462246C7F81CE0C847664E5F
:101FB000D8ED0D6A0020F9692B1D9FED6A7A9FED1F
:101FC0006A6ADFF894C120E0F4EEC67AF1EE10FA06
:101FD000C0F279843246D1ED017A45F8202066EED0
:101FE000A77AF4EEC77AF1EE10FA40F28780F4EEA9
:101FF000C67AF1EE10FAC0F25E84324643F8202031
:102000000230083184427FF6D3AED1ED007A66EE1D
:10201000A77AF4EEC77AF1EE10FAD5D86246DAE77D
:10202000002C3FF4C3AED8ED0C6A86469FED477A8C
:102030004FF0000C331D56F82C200EF1080E82F4E0
:102040000002A2F5000207EE902A53F82C200CF1B2
:10205000020CF8EEE77A82F400026445A2F5000271
:1020600067EE877A67EEA67A4EED027A07EE902A3F
:10207000F8EEE77A67EE877A67EEA67A4EED017A98
:10208000D9D8F9612246C847314ED8ED0D6A0020F3
:10209000F9692B1D9FED337A9FED336ADFF8BCC0E1
:1020A0001FE0F4EEC67AF1EE10FAC0F2FC8332467D
:1020B000D1ED017A45F8202066EEA77AF4EEC77AD2
:1020C000F1EE10FA18D9F4EEC67AF1EE10FAC0F279
:1020D000DA83324643F820200230083184427FF60A
:1020E00067AED1ED007A66EEA77AF4EEC77AF1EE2C
:1020F00010FAD6D86246DBE76246EBE762467DE738
:10210000324615E7A100D6466208073121F00701E3
:10211000ADEB010DEA46ADEB010D6946ADEB0E0DE1
:102120000AEB8200EC46ADEB0E0D01EB8202F8618A
:10213000E946CCE900A0C9E9001290E63409002480
:102140000280FFFF000000300082FF7F00000034AB
:1021500082FF7F0018090024007E00807E0080FF3F
:102160000000003804FF7FBF04FF7F3F00FEFF46F2
:10217000002C00F0C982BBF1020FD8F8242000F037
:10218000FA827969C7F8049002EB810E5FED0C5A70
:102190008A00DCF808100EF104007A611A46DCF8B7
:1021A0000C303B61331DD7F810903D61FD69C7E9E4
:1021B00002CB8C46834636F92210D8ED0C7A06EE17
:1021C000101A33F9221006EE901A3EF92210B8EEDA
:1021D000C66A07EE101AF8EEE66A3BF92210B8EE6E
:1021E000C77A26EE256A66EEA56A27EE257A26EEE0
:1021F000276A66EEA76A27EE277A07EE901A51083B
:102200000232F8EEE77A0AEB8100944280ED006A30
:1022100005EB810067EEA57AC0ED006A0CEB81004A
:1022200009EB810180ED007A98ED0C7A67EE877AF0
:10223000C1ED007ABFD8D7F804903D69D7E902CB49
:1022400060466208BB6949469847D8F82C307A69DD
:10225000D8ED0D6A1A441FED3D7A1FED3D6A2B1D26
:10226000904602F1040A5FED3F5A0022A84ED9E9D8
:1022700000EC51E0F4EEC67AF1EE10FAC0F2C7823B
:1022800047F6FE7045F822000CEB0100D0ED007A15
:1022900066EEA77AF4EEC77AF1EE10FA4BD9F4EEB7
:1022A000C67AF1EE10FAC0F2BA8247F6FE70BBF1C0
:1022B000020F43F822002BD0D9F808000844D0EDD3
:1022C000007A66EEA77AF4EEC77AF1EE10FA36D904
:1022D000F4EEC67AF1EE10FAC0F2CD8247F6FE7047
:1022E00048F82200D9F80C000144D1ED007A66EEDE
:1022F000A77AF4EEC77AF1EE10FA1ED9F4EEC67A98
:10230000F1EE10FAC0F2AF8247F6FE714AF82210E1
:10231000023294427FF6B1AD51080EEB8100890084
:10232000D0ED007A66EEA77AF4EEC77AF1EE10FAF5
:10233000A0D83046A6E73046B9E73146E6E7304652
:10234000CEE7002C00F0E081BBF1020FD8F824307A
:1023500000F0E1817A69DCF8081003EB820EC7F81F
:1023600004909300DFED6B5A0EF1040000227B61B4
:10237000DCF80C303B61331DD7F810903D61FD69EE
:10238000C7E902CB8C46834656F82210D8ED0C7A6A
:1023900007EE101A53F82210B8EEC76A07EE101AAB
:1023A0005EF82210F8EEC76A07EE101A26EE256ACC
:1023B0005BF82210B8EEC77A66EEA56A26EE276AA9
:1023C00027EE257A66EEA76A27EE277A07EE901A9F
:1023D00051080232F8EEE77A0AEB8100944280ED70
:1023E000006A05EB810067EEA57AC0ED006A0CEB90
:1023F000810009EB810180ED007A98ED0C7A67EE9F
:10240000877AC1ED007ABFD8D7F804903D69D7E943
:1024100002CB60466208BB6949469847D8F82C3021
:102420007A69D8ED0D6A1A449FED3E7A9FED3E6AB7
:10243000131D9246DFF8E4C00022FB612B1D364ECF
:10244000D9E9008E4EE0F4EEC67AF1EE10FAC0F251
:10245000FC81304645F822000EEB0100D0ED007AF9
:1024600066EEA77AF4EEC77AF1EE10FA49D9F4EEE7
:10247000C67AF1EE10FAC0F2EF813046BBF1020FDE
:1024800043F822002AD0D9F808000844D0ED007A99
:1024900066EEA77AF4EEC77AF1EE10FA35D9F4EECB
:1024A000C67AF1EE10FAC0F2C98130464AF822002D
:1024B000D9F80C000144D1ED007A66EEA77AF4EE6B
:1024C000C77AF1EE10FA1ED9F4EEC67AF1EE10FAE0
:1024D000C0F2AD813146F86940F8221002329442D0
:1024E0007FF6CBAC510808EB81008900D0ED007A73
:1024F00066EEA77AF4EEC77AF1EE10FAA3D860463A
:10250000A8E76046BAE76146E5E76046CEE700BF68
:102510000280FFFF000000300082FF7F007E00800D
:102520000000003404FF7FBF04FF7F3F002C00F059
:10253000EB807A690021D8F82430C7F8109003EBBB
:10254000820ED7F81C909300FD610EF104021FED7E
:102550000C6A7B61331D154656F821204808D8EDDA
:102560000C6ABBF1020F82F40002A2F5000207EE32
:10257000902A53F8212082F40002B8EEE77AA2F5FF
:10258000000227EE067A07EE902A0AEB8002F8EEA8
:10259000E77A27EE267A67EE867A82ED007A09EBF3
:1025A00080024FEA800067EEA67AC2ED007A27D05B
:1025B0005EF8212082F40002A2F5000207EE902AC4
:1025C00055F8212082F40002B8EEE77AA2F5000265
:1025D00027EE067A07EE902ADCF80820F8EEE77A74
:1025E000024427EE267A67EE867A82ED007A98ED2D
:1025F0000C7ADCF80C2067EE877A0244C2ED007A90
:1026000002318C42A8D8D7F8109060466208BB69A6
:102610004946FD699847D8F82C307A69D8ED0D6A9B
:102620001A441FED407A1FED406A131D9246DFF8F1
:10263000C4C20022FB612B1DAB4ED9E9008E4EE0D7
:10264000F4EEC67AF1EE10FAC0F2C580304645F8D5
:1026500022000EEB0100D0ED007A66EEA77AF4EED0
:10266000C77AF1EE10FA49D9F4EEC67AF1EE10FA13
:10267000C0F2BF803046BBF1020F43F822002AD0DF
:10268000D9F808000844D0ED007A66EEA77AF4EE97
:10269000C77AF1EE10FA35D9F4EEC67AF1EE10FAF7
:1026A000C0F2AE8030464AF82200D9F80C0001444E
:1026B000D1ED007A66EEA77AF4EEC77AF1EE10FA61
:1026C0001ED9F4EEC67AF1EE10FAC0F28B803146D4
:1026D000F86940F82210023294427FF6CEAB5108DE
:1026E00008EB81008900D0ED007A66EEA77AF4EE5F
:1026F000C77AF1EE10FAA3D86046A8E76046BAE7B9
:102700006146E5E76046CEE7224649466046BB693A
:102710009847FFF7B2BBC7F810B0002298ED0C6ADB
:10272000331DDFED726AD7F81CB0786956F82210B5
:1027300007EE901A53F82210B8EEE77A07EE901AD7
:1027400051080232F8EEE77A27EE267A0AEB810E7C
:1027500094420BEB810167EEA67A27EE067A67EECC
:10276000867A8EED007AC1ED007ADFD88300D7F843
:1027700010B07B614DE61A46C7F810B098ED0C6AB0
:10278000331DDFED5B6AD7F81CB0786936F922108B
:1027900007EE101A33F9221007EE901AB8EEC77A36
:1027A00051080232F8EEE77A27EE267A0AEB810E1C
:1027B00094420BEB810167EEA67A27EE067A67EE6C
:1027C000867A8EED007AC1ED007ADFD88300D7F8E3
:1027D00010B07B6134E5F0EE675AFEEEE45A15EE78
:1027E000900A34E7F0EE675AFEEEE45A15EE901ABE
:1027F0006EE7F0EE675AFEEEE45A15EE900A3AE7FD
:10280000F0EE675AFEEEE45A15EE900A4BE767EEDB
:10281000A57AFDEEE77A17EE900A00B232E567EE90
:10282000A57AFDEEE77A17EE900A00B23FE5F0EEEA
:10283000675AFEEEE05A15EE901A4CE6F0EE675A33
:10284000FEEEE05A15EE900A30E6F0EE675AFEEE24
:10285000E05A15EE900AFDE5F0EE675AFEEEE05AFA
:1028600015EE900A0AE667EEA57AFDEEE77A17EE16
:10287000901A09B24AE567EEA57AFDEEE77A17EEFF
:10288000900A00B22CE5F0EE675AFEEEE45A15EE1F
:10289000902A1FE467EEA57AFDEEE77A17EE902AFC
:1028A00012B2FFF731BBF0EE675AFEEEE45A15EEB6
:1028B000902AFFF7FDBBF0EE675AFEEEE05A15EEE8
:1028C000902AFFF79BBBF0EE675AFEEEE05A15EE3A
:1028D000902AFFF780BB67EEA57AFDEEE77A17EE48
:1028E000902A12B2FFF724BB82FF7F000000003065
:1028F000000000387E0080FF30B5184C154685B0CA
:10290000046004F1080EEC460FC98EE80F00D4ED08
:10291000047AF5EEC07A8CE80F00F1EE10FA1ADDB9
:10292000B7EE006A94ED057A27EE277AC6EE276A9D
:1029300084ED0D7AC4ED0C6A6DB1204640F8185F45
:1029400001F022FD064903690020064A2162A262C5
:10295000E36005B030BD012005B030BD180900248A
:10296000002000300000003000680830704700BFD1
:10297000B1F5807F03680A4628BF4FF48072B1F535
:10298000807F9A6094BF0020012070470068183053
:1029900001F05ABD70B504688AB0A369E160CBB19B
:1029A00004F11805284601F0EFFC8446EE46E6687F
:1029B000BCE80F00AEE80F00BCE80F00AEE80F0067
:1029C0009CE803008EE8030069462846049601F05F
:1029D000E3FBF8B9E069D8B104F11C05284601F021
:1029E000D3FC8446EE46E468BCE80F00AEE80F0076
:1029F000BCE80F00AEE80F009CE803008EE803007F
:102A000069462846049401F0C7FB003818BF01202E
:102A10000AB070BD01200AB070BD00BF30B50468B7
:102A200083B00D46E3694BB1A3680020E26A616A96
:102A30009B00009004F11C0001F0A8FCA36807486B
:102A4000A26A9B00216A009004F1180001F09EFC2C
:102A50000020C4E9005003B030BD00BF3D1D000898
:102A600010B4074B4FF07E5130240022032019612F
:102A70009C60D8605DF8044B5961C3E90622704739
:102A80001809002470B5044682B0C1F30726CDB200
:102A9000ADF8041001F09EFD4FF480724FF0012359
:102AA0002060A01DA571A280E671A36002B0BDE800
:102AB000704000F03FBB00BF38B5044601F08AFD0E
:102AC000002223682271834210D00122A57AE37A82
:102AD000954020602271A01D6DB243B900F006FC44
:102AE00040B22843C0B27F28A0720AD038BD00F09F
:102AF000FDFBB0FA80F040092843C0B27F28A072E5
:102B0000F4D101F067FD07EE900AF8EE677AC4EDA4
:102B1000037A38BD82B04FF0000C0323ADF80410E7
:102B2000BDF8042080F810C00280438002B07047D6
:102B30002DE9F04FBE4E00258FB0BE4C037006F15C
:102B400040034260074601928846202229463046CB
:102B5000C4F85831C4F85461CDE90355CDE90555A1
:102B6000CDE90755CDE90955CDE90B5511F030F9FF
:102B70002022294604F59970C4F82151C4F8255142
:102B8000C4F82951C4F82D5111F022F9019B84F8A1
:102B9000385284F820317A68002A5FD02B464146AB
:102BA000B64604F5907599464FF0010A03EB031001
:102BB000D1F800B0D1F804800133D1F808C0221850
:102BC000CE6844F800B0C2F80480C2F808C0D660ED
:102BD000087C2EF8029B10740A7C05F8012F002A4D
:102BE00069D07A68113184F838A29A42DED84FF45D
:102BF000802291489DF8043008214FF000084FF0E2
:102C00000009C4F874310023C4E957020122C4F852
:102C1000643184F87031C4E95A2194F83812C4E957
:102C2000608981B3C4F88821002284F8713184F866
:102C300078313B78C4E96322A3B30122002001214B
:102C4000013B84F89421C4E96801082B2CD8DFE803
:102C500003F0ABB0B5BABFC4C9CFD6009DF80430FD
:102C60000121C4F86421C4F874314FF4802384F83E
:102C70007021714AC4E9572308230022C4E95A137A
:102C80000023C4E960230123002284F8713100236A
:102C900084F878310323C4F888313B78C4E963228F
:102CA000002BCAD184F89431644802F0E7FC034653
:102CB00038B1FFBEFEE77A6811319A423FF676AF2F
:102CC00095E703A95D48039302F036FE0546002808
:102CD00068D1022240F2FF73CDE9082300230422C9
:102CE000CDE90A2394F82031002B00F0D5804FF075
:102CF000060921E0022B00F08980012B40F0C480FE
:102D00009AF80130012B00F0C180002B4C4B18BF0A
:102D1000002306A94948CDE9063902F0DBF800286E
:102D200040F0BF80013594F82031EDB2AB4240F263
:102D3000B380444B53F825902FB207EB071704EBF1
:102D4000070A504600F0F6F905EB051323441B7CF7
:102D5000042B7DDC022B00F3918000F08D80631941
:102D6000002283F81021E35D002BC3D19AF80130D3
:102D7000062B00F08580072B00F08A80022B00F0E4
:102D80009680032B00F09580002B00F09680012B9D
:102D900000F09180042B00F09280052B2A4B18BF85
:102DA0000023B6E7FFBEFEE703224023C4E9662303
:102DB0007AE707226023C4E9662375E70F228023A0
:102DC000C4E9662370E71F22A023C4E966236BE7EA
:102DD0003F22C023C4E9662366E77F22E023C4E9DB
:102DE000662361E7FF224FF48073C4E966235BE743
:102DF00040F2FF124FF49073C4E9662354E740F2A7
:102E0000FF324FF4A073C4E966234DE79AF801300E
:102E1000042B37D0052B3DD0002B40D0012B42D0C6
:102E2000022B42D0032B094B18BF002371E700BFD0
:102E3000004000305009002400200240AC0A002469
:102E40000002B025244F01080000B84F0020903642
:102E500003233E1D04EB05084FF0000B264488F8C1
:102E6000103130460BF1010B00F064F998F8103185
:102E700004365B45F5DC76E70123EAE70223E8E761
:102E8000104B46E7104B44E7002342E70F4B40E767
:102E90000F4B3EE70F4B3CE70FB0BDE8F08F0E4BFA
:102EA00037E7FFBEFEE70D4B33E70D4B31E70D4B28
:102EB0002FE70D4B2DE70D4B2BE70D4B29E70D4B66
:102EC00027E700BF0800900C1000C0102000F0148D
:102ED0008000501D000180210004002A0008302ECF
:102EE000001060320040C03A0080F03E00005247BF
:102EF000000021430000844B38B5094C40F2FF72BA
:102F00004FF0011104F5AE75284602F0C3FC94F8A9
:102F10002021D4F854112846BDE8384002F02EBADA
:102F200050090024064B0F29D3F8543198BF03EB06
:102F300041031B8800EE103ABBEEC80A704700BF81
:102F400050090024214B02689A4200D07047204A61
:102F500000232048D2F8D81030B51F4C41F0200192
:102F600083B0C4F8C001092004F5E075C4E9710319
:102F70004FF48060C2F8D810D2F8D8204FF4006126
:102F8000C4E9733094F8380202F02002C4F8D41176
:102F90004FF40051984201922846C4F8D811C4E970
:102FA0007833019B14BF00234FF48073C4F8DC31E5
:102FB00002F0E8FE08B1FFBEFEE704F5AE73C4F808
:102FC000A851C4F8F83103B030BD00BF0020024062
:102FD000004402584000024050090024014803F018
:102FE00049BA00BF100B002402682DE9F84F4B4B83
:102FF0009A4201D0BDE8F88F494D95F83832002B40
:10300000F8D095F82031002B77D0002405F10C0979
:1030100005F5997605F59077A04613E003F00101D8
:1030200017F811BCA9F1080000F06EF9BBF1010F0F
:1030300025D895F82031013409F111090236A2B2E0
:1030400093422BD917F8012F002AF4D0D5F8543128
:103050000021327833F81400D5F8583103EB04130B
:1030600023F81200338801339BB233805FFA83FA6E
:103070003A789A42D2D88A46A6F80080D0E7CAF3B6
:103080004001A9F1040000F03FF9BBF1020FCAF3BF
:103090008001CED0484600F037F9CAE7002395F802
:1030A0003802204909229842C5F8C8314FF480609F
:1030B000C5F8C011C5F8C4214FF400614FF40052A7
:1030C000C5F8CC3108BF4FF48073C5F8D821C5E9E5
:1030D000740100221448C5E97732C5F8E42102F0F2
:1030E00051FE08B1FFBEFEE795F82021D5F8541136
:1030F0000E48BDE8F84F02F041B90A4909224FF4E1
:103100008060C5F8C831C5E970124FF400614FF412
:103110000052C5E97330C5E97512DAE700200240B4
:103120005009002440000240100B0024AC0A002487
:10313000704700BF8378022B30B504468FB037D07C
:10314000032B33D0012B31D000230A93E378012BDA
:103150002AD0022B28D000230B93002320460C9367
:1031600001F032FD0546204601F036FD2378099036
:10317000082B13D8DFE803F01F3245586B7E91A46B
:103180000500594BD3F8E02042F48072C3F8E020E8
:10319000D3F8E03003F480730893089B09A928460C
:1031A00003F0BAFC0FB030BD0B93D6E70A93CDE71E
:1031B00011230A93CAE74C4B09A92846D3F8E0200B
:1031C00042F00102C3F8E020D3F8E03003F001033D
:1031D0000093009B03F0A0FC0FB030BD424B09A947
:1031E0002846D3F8E02042F00202C3F8E020D3F8EA
:1031F000E03003F002030193019B03F08DFC0FB05C
:1032000030BD394B09A92846D3F8E02042F004022A
:10321000C3F8E020D3F8E03003F004030293029BEC
:1032200003F07AFC0FB030BD2F4B09A92846D3F824
:10323000E02042F00802C3F8E020D3F8E03003F0C9
:1032400008030393039B03F067FC0FB030BD264BCC
:1032500009A92846D3F8E02042F01002C3F8E02084
:10326000D3F8E03003F010030493049B03F054FC04
:103270000FB030BD1C4B09A92846D3F8E02042F01E
:103280002002C3F8E020D3F8E03003F020030593D8
:10329000059B03F041FC0FB030BD134B09A9284634
:1032A000D3F8E02042F04002C3F8E020D3F8E03049
:1032B00003F040030693069B03F02EFC0FB030BDD5
:1032C000094B09A92846D3F8E02042F08002C3F850
:1032D000E020D3F8E03003F080030793079B03F06E
:1032E0001BFC0FB030BD00BF0044025838B5054686
:1032F00001F06AFC0446284601F06EFC01462046B7
:10330000BDE8384003F010BE70B506460D4601F02A
:103310005BFC0446304601F05FFC2A1E0146204655
:1033200018BF0122BDE8704003F004BE0023122242
:1033300070B586B0CDE9022304930368032B01D84E
:1033400004230593061D841D304601F03DFC05460F
:10335000304601F041FC034601A92846019303F0E1
:10336000DBFB204601F030FC034620461C4601F002
:1033700033FC01A903462046019303F0CDFB06B0C0
:1033800070BD00BF634A0368934210B58CB028D06B
:10339000614A934258D0614A934200F09480604A57
:1033A000934201D00CB010BD5E4C5F48D4F8E030C1
:1033B00043F00203C4F8E030D4F8E03003F0020335
:1033C0000A930A9BFFF7B2FFD4F8F43043F080036E
:1033D000C4F8F430D4F8F43003F080030B930B9B63
:1033E000E0E7504C5148D4F8E03043F00203C4F811
:1033F000E030D4F8E03003F002030193019BFFF7C3
:1034000095FFD4F8E83000221F2043F40013114642
:10341000C4F8E830D4F8E83003F400130293029BB8
:10342000D4F8D83043F00103C4F8D830D4F8D830F9
:1034300003F001030393039B02F0F2FA1F200CB088
:10344000BDE8104002F02ABB364C3948D4F8E030D1
:1034500043F08003C4F8E030D4F8E03003F0800398
:103460000493049BD4F8E03043F00203C4F8E03046
:10347000D4F8E03003F002030593059BFFF756FFF5
:10348000D4F8E8300022212043F480031146C4F828
:10349000E830D4F8E83003F480030693069BD4F8B0
:1034A000D83043F00103C4F8D830D4F8D83003F052
:1034B00001030793079B02F0B3FA21200CB0BDE88B
:1034C000104002F0EBBA1B48FFF730FF154B00220B
:1034D0004820D3F8E840114644F40004C3F8E8401B
:1034E000D3F8E84004F400040894089CD3F8D840CA
:1034F00044F00104C3F8D840D3F8D83003F00103F6
:103500000993099B02F08CFA48200CB0BDE81040EA
:1035100002F0C4BA0054004000580040005C004073
:10352000001C005800440258180E0024900B002480
:10353000680C0024400D00242DE9F0431A4B87B09D
:1035400000254FF010099E46EC46184BFF22E0463E
:1035500067461A700EF118060EF13004CDE90055D9
:10356000CDE90255ADF80090BCE80F00CDE9045557
:10357000AEE80F009CE803000095ADF800908EE8DF
:103580000300B8E80F000FC69CE803000095ADF8F3
:10359000009086E803000FCF0FC49CE8030084E886
:1035A000030007B0BDE8F0830C0000248C0B00245E
:1035B00010B5EFF3108472B6084B1A78120602D5D4
:1035C00004B962B610BD1B78D82205485BB202FB75
:1035D0000300143002F04EFFF2E700BF8C0B002412
:1035E000900B0024014804F03DBB00BF1C0C0024DC
:1035F000014804F037BB00BFF40C0024014804F07C
:1036000031BB00BFCC0D00242DE9F0430F68D82456
:103610003F4D85B007FB04F4032F05EB0403036063
:1036200040DCCB680E46012B3CD84DD04FF0D8087B
:10363000B646DFF8FC9008FB0758BEE80F00C4460A
:10364000ACE80F00DEF800300DF1100ECCF80030C1
:10365000D8F808C099E80F000EE90F000EEB8703B9
:10366000BCF1010F53F8103CC8F88C3031D0BCF1DC
:10367000020F42D0BCF1000F35D0317C8C34D823FE
:10368000002201202C4403FB07534900C3E9260212
:10369000C3F894102046C3E92822C3E92A2204F083
:1036A000D3F818B1012005B0BDE8F08301462046EB
:1036B00004F0E4FA0028F5D10146204604F008FBA6
:1036C000003818BF0120EEE70B7C103B672BADD90B
:1036D000E8E701F0F3F80F4B98420CBF0E4B0F4B8D
:1036E000C8F89030C9E701F0E9F80A4B98420CBFDE
:1036F0000B4B0C4BC8F89030BFE701F0DFF8054BDF
:1037000098420CBF084B094BC8F89030B5E700BF92
:10371000900B0024000E27072D0FB0303211D0205F
:103720005F4390608A62E030200BA0101A0980107D
:10373000F04E01082DE9F041D0F8008082B00D462E
:1037400017461E4608F18C04204604F093FA202800
:10375000FAD1D8F80C3073B96D002046089C334676
:103760003A46A9B2009404F0C5F8003818BF012009
:1037700002B0BDE8F081089B32463946204604F08D
:103780008DF9F2E7044B10221A7483F8E82083F8CD
:10379000C02183F898227047900B002430B5002395
:1037A00095B04FF48071062204460B930692139352
:1037B000CDE90C13CDE90E33CDE9113301F080F8DA
:1037C00007282BD004F1100541F2883206A92846BB
:1037D00005F090F828B10123184684F85C3015B044
:1037E00030BD0222022306A92846CDE9002310227B
:1037F0000123CDE9022300224FF48003CDE9042305
:1038000005224FF0807306926A460F9341F2883387
:1038100005F0DCF90028DED115B030BD032301200E
:1038200084F85C3015B030BD70B50023A4B04FF003
:1038300080724FF480750446ADF806300D93CDE9E3
:1038400010320122CDE90E53CDE91223CDE9143314
:10385000002943D0F02300F1100508AEADF8063082
:10386000C02341F2883231462846089305F042F8D9
:1038700028B10123184684F85C3024B070BD41F2B1
:1038800088320DF10601284605F09EF8034600280F
:10389000EFD105224FF480711E93284616924FF007
:1038A00080721B9321931F9202AA9FED1F7BCDE98B
:1038B0001C13CDE922338DED027B9FED1D7B41F280
:1038C000883316A98DED047B9FED1B7B8DED067B68
:1038D00005F07CF90028CCD124B070BD00F11005B2
:1038E00008AE612341F2883231462846089305F03C
:1038F00001F80028BDD141F288320DF106012846B9
:1039000005F0E0F80028B4D1BDF80630204623F0D9
:10391000780343F04003ADF80630FFF73FFF00287F
:103920009ED0A6E7AFF30080000000000100000079
:103930001000000001000000000000000000400036
:103940002DE9F04F00234FF4807501264FF0807869
:1039500004462DED028BABB08DF807301393219305
:10396000299314950E96CDF85C80CDE91533CDE9F9
:103970001863CDE91A33CDE92253CDE92433CDE9DB
:10398000273306231C9300F09BFF072808D004F17F
:10399000100741F288321CA9384604F0ABFF40B151
:1039A0000123184684F85C302BB0BDEC028BBDE8D7
:1039B000F08F4FF0020A4FF0020B4FF0050941F271
:1039C000883308AA1CA93846CDF89480CDF87090A9
:1039D0009FED2D8BCDE908AB4FF0000A4FF4800B23
:1039E0008DED0A8BCDE90CAB05F0F0F80028D7D1AE
:1039F00041F2883238460EA904F07CFF0028CFD16E
:103A0000402341F288320DF1070138468DF8073026
:103A100004F0DAFF0028C3D141F288330EA902AACC
:103A20003846CDF83890CDF85C809FED197B8DED50
:103A3000048BCDE906AB8DED027B05F0C7F803469C
:103A40000028ADD1CDF870904FF00109CDF89480E9
:103A50004FF00008219308AA29931CA93846229503
:103A6000CDE92333CDE9273341F288338DED0A8B3D
:103A7000CDE90CABCDE9088905F0A8F8002893D072
:103A8000304684F85C608FE7100000000100000001
:103A900040000000400000002DE9F043624CA3B05C
:103AA0000D46046000F00CFF072800F0A98028688C
:103AB00023466968AA6807C31E46AB8926F8043BFB
:103AC0003046257B677B04F0F7FEE0B9574B012DAC
:103AD0004FF00108E061236114BF4FF480134FF4ED
:103AE0000003C4E9058893FAA3F3B3FA83F34FF410
:103AF0008079013BC4F82490C4E90B00304623626E
:103B000004F06EFE38B10122134684F85C2018469A
:103B100023B0BDE8F08366230B90139041F2883206
:103B200006A90693CDE90C90CDE90E00CDE9110070
:103B3000304604F0DFFE0028E5D1992341F28832B7
:103B400006A93046069304F0D5FE0028DBD10523F4
:103B50001C9019906A4614934FF08073219014A919
:103B60001D9341F288339FED2A7BCDE91A90CDE970
:103B70001F008DED007B9FED287B30468DED027B95
:103B80009FED277B8DED047B05F020F80028BAD14E
:103B900029462046FFF748FE0028B4D12046FFF70B
:103BA000CFFE03460028AED1002FB0D11893304687
:103BB0000027002606AA14A9CDF86890CDE91F3386
:103BC000EB2314934FF440631B934FF4005317936C
:103BD0004FF440431C93A0231693062319934FF0F0
:103BE000805321934FF04073CDE906671D9305F094
:103BF00065F8034600288AD0434684F85C8086E74F
:103C000001230322184684F85C2023B0BDE8F0832A
:103C10000000000001000000100000000100000092
:103C20000000000000004000F00E00240050005290
:103C30002DE9F04F8FB0414B0024026800AF9A424B
:103C40007C63C7E90944C7E90B4403D03C37BD4650
:103C5000BDE8F08F3A4B40F609213A48EB46D3F8DD
:103C6000D42007F11C0607F1220A4FF0020942F4A2
:103C700080424FF00308C3F8D420D3F8D42002F4D4
:103C80008042BA60BA68D3F8E02042F04002C3F83C
:103C9000E020D3F8E02002F04002FA60FA68D3F89E
:103CA000E02042F02002C3F8E020D3F8E02002F048
:103CB00020023A613A69D3F8E02042F01002C3F8DA
:103CC000E020D3F8E02002F010027A617A69D3F89C
:103CD000E02042F00202C3F8E020D3F8E030F861BF
:103CE00003F002033984BB61174B7B60BB697B68BF
:103CF00053F8040F7B6000F067FF7B680546186887
:103D000000F06AFF16F8013B786207F124012846AB
:103D1000C7F830807B63C7E90A9402F0FDFE564580
:103D2000E5D100225C20114601F07AFE5C2001F012
:103D3000B5FE3C37DD46BD46BDE8F08F0050005271
:103D4000004402580A0A09094C0F0024114B02686A
:103D50009A4200D07047104A70B5D2F8D4300F4C58
:103D600023F4804304F11806C2F8D43054F8040F49
:103D700000F02AFF0546206800F02EFF0146284685
:103D800003F00AF8B442F1D15C20BDE8704001F0C4
:103D900093BE00BF00500052004402584C0F002454
:103DA000014805F017B800BF000F0024084B1A1D8A
:103DB000981D03F1080110B49C1C9A6603F10A02D5
:103DC000C3E91834C3E91B015DF8044B5A67704717
:103DD000F00E002438B5036871B9026A00F12805B5
:103DE00000F5AC74012A0CBF002140218BBB1D4B98
:103DF0005722C0F858310DE0426A00F1C00500F5C5
:103E0000E874012A0CBF00214021EBB1164B5A2265
:103E1000C0F8D03100232046C4E901214FF480527C
:103E20004FF48061636262614FF48042C4E9033100
:103E30004FF48073C4E906234FF40033236201F08A
:103E4000A1FF58B1FFBEFEE7084B5822C0F8D031A1
:103E5000E0E7074B5922C0F85831DBE7C5E92044B9
:103E6000A56338BD100002407000024028000240E7
:103E7000580002402DE9F043821D05468BB0031D1A
:103E800005F10A010830CDE9052305F10C02AB6903
:103E9000CDE907010992002B3DD0EB69B3FA83F815
:103EA0004FEA58180123022205AE0AAF4FF0060967
:103EB0000393CDE9012356F8044B2B7922789342E2
:103EC00016D02B68F3B1012B02D1F2B10A2304936F
:103ED000204600F081FE03462046009300F074FE69
:103EE000694602F019FEBE42E5D10BB0BDE8F08391
:103EF000697963789942E4D1B8F1000FF3D02B6867
:103F0000002BE0D1CDF81090E2E76378022B14BFCC
:103F10000A230823DBE74FF00108C3E7534A03688D
:103F2000934230B505468BB055D02032934252D0E3
:103F30004F4A934204D02032934201D00BB030BD9F
:103F40004C4C4D48D4F8E03043F00103C4F8E03065
:103F5000D4F8E03003F001030593059BD4F8E0307A
:103F600043F00803C4F8E030D4F8E03003F008036D
:103F70000693069BD4F8E03043F04003C4F8E030E9
:103F8000D4F8E03003F040030793079BD4F8F030F7
:103F900043F40003C4F8F030D4F8F03003F4000325
:103FA0000893089BFFF766FFD4F8D830296843F0E0
:103FB00001032F4A3048C4F8D830891AD4F8D830D1
:103FC00018BF012103F001030993099B0BB0BDE861
:103FD0003040FFF7FFBE274C2848D4F8E03043F0CC
:103FE0000103C4F8E030D4F8E03003F0010300939B
:103FF000009BD4F8E03043F01003C4F8E030D4F86C
:10400000E03003F010030193019BD4F8E03043F05B
:104010004003C4F8E030D4F8E03003F040030293EA
:10402000029BD4F8F03043F48003C4F8F030D4F8A5
:10403000F03003F480030393039BFFF71BFFD4F8D6
:10404000D830296843F00103084A0C48C4F8D83036
:10405000891AD4F8D83018BF012103F00103049362
:10406000049B0BB0BDE83040FFF7B4BE04580140DC
:10407000045C014000440258C4110024680F00246D
:10408000014802F0F7B900BFC0100024014802F057
:10409000F1B900BF38110024014802F0EBB900BFAC
:1040A0001C130024014802F0E5B900BF941300245A
:1040B0001A4A0368934210B40BD02032934208D0BE
:1040C000174A934216D02032934213D05DF8044B26
:1040D0007047144B0022D3F85442C3F85822002CE6
:1040E000F4D0D3F84802D3E9931223465DF8044B89
:1040F000520818470B4B0022D3F8B044C3F8B4243D
:10410000002CE3D0D3F8AC24D3F8A814D3F8A4043B
:10411000520823465DF8044B184700BF045801407D
:10412000045C0140680F0024184A0368934210B4ED
:104130000BD02032934208D0154A934217D0203238
:10414000934214D05DF8044B7047124BD3E994248A
:104150005208C3F85822002CF4D0D3E99201234628
:1041600001EB820100EB82005DF8044B1847094B1C
:10417000D3F8AC24D3F8B0445208C3F8B424002CCC
:10418000E0D0D3F8A814D3F8A404E8E70458014019
:10419000045C0140680F00242DE9F04F0C684FF4D7
:1041A0001776754F87B004FB06F6012C07EB060A5D
:1041B000C0F800A000F3A0800D468E464FF0000826
:1041C000D44669A3D3E9002369A1D1E90001CDE96F
:1041D000022306ABCAF8508203EB8403CDE9040145
:1041E00053F810BC53F8083CCAE992880193BEE822
:1041F0000F00ACE80F00BEE80F00ACE80F00019B19
:104200009EE80300CAF828B0CAF8C0308CE8030062
:104210002B69042B0CD8DFE803F0737D8791030032
:104220004FF41773554A03FB04739A64C3F8E020F4
:10423000AA692B6A002A43D0002B4FF4177308BFDA
:10424000022203FB047318BF0322DA6201221A63FD
:10425000EA696B6A002A40D1191E4FF4177318BF20
:10426000012103FB0473C3E931126B69022B05D8EA
:10427000434A12F80380434A52F823904FF41773CD
:1042800006F128004246494603FB047400233844E3
:1042900063646363E365C4F8DC30C4F8CC30C4F80D
:1042A000F430C4E90F33C4E91533C4E93533C4E944
:1042B0003B33022306F030FE002849D0FFBEFEE764
:1042C000191E4FF4177318BF012103FB0473C3E9D0
:1042D0000B12EA696B6A002ABED0002B4FF41773E9
:1042E00008BF022203FB047318BF0322C3F8C420D3
:1042F0000122C3F8C820B8E7012007B0BDE8F08F5D
:104300004FF417734FF4FA5203FB04739A64C3F823
:10431000E0208DE74FF417734FF47A5203FB0473D8
:104320009A64C3F8E02083E74FF417734FF4FA421E
:1043300003FB04739A64C3F8E02079E74FF4177322
:104340004BF6803203FB04739A64C3F8E0206FE7F6
:1043500006F1C000022342464946384406F0DCFD1F
:104360000028CAD0FFBEFEE704580140045C0140AB
:1043700024580140245C0140680F002400770100AC
:10438000644F0108684F01080068704770B5046801
:1043900082B015460E46C4F85032C4E99212069A0D
:1043A000C4F85422A269012A26D0626A012A9AB26C
:1043B00011D0294604F1C000019206F069FE236A7B
:1043C000019A012B10D0294604F1280006F060FE66
:1043D000002002B070BD04F1C000019206F0EAFEB8
:1043E000236A019A012BEED1314604F1280006F030
:1043F000E1FE002002B070BD226A012A9AB211D0FB
:10440000294604F12800019206F042FE636A019AEF
:10441000012B10D0294604F1C00006F039FE00201F
:1044200002B070BD04F12800019206F0C3FE636A79
:10443000019A012BEED1314604F1C00006F0BAFE1C
:10444000002002B070BD00BF03681B69042B05D8B3
:10445000044A02EB830393ED000A70479FED020AC2
:10446000704700BF744F010800803B470368D3F8D2
:1044700058027047704700BF08B500F0B5FCBDE8B2
:10448000084001F095BB00BF064808B503680BB1B2
:1044900002F054FD044803681BB1BDE8084003F076
:1044A00043BC08BD3018002428140024064808B571
:1044B00003680BB102F042FD044803681BB1BDE87C
:1044C000084003F031BC08BD301800242814002433
:1044D000064808B503680BB102F030FD04480368D4
:1044E0001BB1BDE8084003F01FBC08BD3018002414
:1044F00028140024364BDA6A520062D59A6A9A6A06
:104500009A6A9B6A180600D500BE314B9B6A9906D1
:1045100000D500BE2E4B9B6ADA0600D500BE2C4BA0
:104520009B6A1B0700D500BE294B9B6A980700D5E4
:1045300000BE274B9B6AD90700D500BE244B9B6A5F
:104540001A0400D500BE224B9B6A9B0400D500BE16
:104550001F4B9B6AD80400D500BE1D4B9B6A1905F2
:1045600000D500BE1A4B9B6A5A0500D500BE184BF9
:104570009B6A9B0500D500BE154B9B6AD80500D5EC
:1045800000BE134B9B6A990100D500BE104B9B6A7D
:10459000DA0100D500BE0E4B9B6A1B0300D500BE9E
:1045A0000B4B9B6A580300D500BE094B9B6A9903CD
:1045B00000D500BE064B9B6ADA0306D400BE00BEDF
:1045C000FEE7DB6A9B07FAD5F8E700BEF6E700BF17
:1045D00000ED00E000F014BC014809F099BA00BFFA
:1045E0002014002400F012BC2DE9F041CEB00446A6
:1045F0004C2200210AA80FF0EBFB2022002102A888
:104600000FF0E6FBBC2200211EA80FF0E1FB022008
:1046100003F0FEFF2368012B4FF0000354D0534AF0
:1046200002250193C820D16A514B21F00101D162CA
:10463000D26A02F0010201929A6942F440429A6100
:104640009B6903F440430193019B494A93699B048E
:10465000FCD548490224002201268B6A04274FF02A
:10466000080823F0030323438B62052316900AA84E
:1046700018934FF480331096179419941597CDF82A
:104680006880CDE91B222122CDE91344CDE90A231C
:1046900004F0A8FC00B1FEE73F220323294602A84C
:1046A000CDE9022300220823CDE904234022402340
:1046B000CDE9062340234FF48062CDE9082304F0BE
:1046C000BFFF0346B8B1FEE7294A04250093F02056
:1046D0009169264B41F440419161926902F4404254
:1046E0000092DA6A42F00102DA62DB6A03F0010347
:1046F0000093009BA9E720224FF4805125934FF4AB
:1047000040152B9280222D931EA83093269135912F
:104710004FF48071249234920C223394439140F2EE
:10472000271120921022CDF884802A971F96CDE978
:104730002E34CDE93B334FF48033CDE9224631931B
:10474000002446930623CDE93E4527934FF480632A
:10475000094C2C931E94CDE9281205F0CDF900B137
:10476000FEE703F07BFF4EB0BDE8F0810004005887
:1047700000480258004402580F130F032DE9F0417E
:104780000D46044684B0D1E9000184E8030000F03E
:10479000FBFAAE79002E37D06F460AF05BF8FEF7D1
:1047A000CBFE08F01BFD09F0E9FD2B79002B54D15D
:1047B0006B799BB1BFF34F8FBFF36F8F3C4B0022E0
:1047C000C3F85022BFF34F8FBFF36F8F5A6942F483
:1047D00000325A61BFF34F8FBFF36F8F4FF0FF323C
:1047E0000023002400253946324802928DF80C300F
:1047F000CDE9004509F012F92E4809F077F908F0E3
:104800001DF904B0BDE8F08120466F46FFF7ECFECD
:10481000012401F07BF94FF040534FF48078384683
:104820000193254BADF80040CDE9023801F08CF939
:1048300019224FF0404338468DF80F40ADF80D80F7
:104840008DF801408DF80A608DF80820019301F081
:104850007BF9042001F068F99FE7154C0023C4F8A8
:104860008430BFF34F8FD4F8803043F6E07EC3F33B
:10487000C906C3F34E334FEA431C0CEA0E0033461D
:1048800040EA8372013BC4F860225A1CF8D1ACF1B3
:10489000200C1CF1200FF0D1BFF34F8F636943F45C
:1048A00080336361BFF34F8FBFF36F8F80E700BF2B
:1048B00000ED00E0201400240E00010304F0F0BF1E
:1048C0001C4B9B6803F17842B2F5003F25D3B3F54A
:1048D000803F20D303F16042B2F5003F1FD303F1C4
:1048E0005C42B2F5002F1CD303F17042B2F5902F59
:1048F00019D303F14842B2F5803F16D303F1804249
:10490000B2F1806F13D303F1E043B3F5000F2CBF76
:1049100008200720704701207047002070470220C0
:104920007047032070470420704705207047062019
:10493000704700BF00ED00E003480023034A04492C
:1049400003600DF0BFBF00BF20140024000000244E
:104950007544000810B4204C0022204B83B0D4F8DA
:1049600088101F4841F47001C4F8881019681D4C64
:1049700041F0010119601A61196808401A4918606C
:104980009A61DA611A629A62DA621A635A639A6306
:10499000DA631A645A64186820F4802018601A6672
:1049A000D3F8DC2042F06042C3F8DC20D3F8DC30DE
:1049B0000193019B23681940B1F1005F03D20B4BB7
:1049C0000122C3F80821044B4FF000629A6003B043
:1049D0005DF8044B704700BF00ED00E00044025852
:1049E0007FEDF6EA0010005C0000FFFF0080005140
:1049F00000F57171D0F8040407F008BCC1EBC103E5
:104A000000EB8303D0F80404D3F8082207F02CBC91
:104A1000C1EBC10300EB8303D0F804049A6C07F0E8
:104A200061BC00BFD0F8040407F000BDC16810B538
:104A3000044619B1022900D0FEE70121D4F804048C
:104A400007F0DEFCD4F80404BDE8104007F0B0BC69
:104A500010B50446D0F8040407F0D6FC2268D2F85A
:104A6000003E43F00103C2F8003E236A23B1034A2B
:104A7000136943F00603136110BD00BF00ED00E0B1
:104A8000D0F8040407F0CABCD0F8040407F0DEBC78
:104A9000D0F8040407F0D8BCD0F8040407F0D8BC60
:104AA000D0F8040407F0D6BC9446D0F898021A4611
:104AB00008B5634603F09CFC032802D8024B185C3F
:104AC00008BD022008BD00BF984F0108D0F8980229
:104AD00008B503F01BFD032802D8024B185C08BD83
:104AE000022008BD984F0108D0F8980208B503F0DD
:104AF00051FD032802D8024B185C08BD022008BDF6
:104B0000984F01080A06D0F8983206D4C1EBC101CB
:104B100003EB810191F8FE01704701F07F01C1EBC9
:104B2000C10103EB810191F83E007047D0F8980273
:104B300008B503F047FC032802D8024B185C08BDF7
:104B4000022008BD984F0108D0F8980208B503F07C
:104B5000B5FC032802D8024B185C08BD022008BD32
:104B6000984F0108D0F8980208B503F07FFC03289D
:104B700002D8024B185C08BD022008BD984F0108FE
:104B8000D0F8C00207F014BFD0F8C00207F028BF69
:104B9000D0F8C00207F030BF704700BFD0F8C002A5
:104BA00007F016BFD0F8C00207F016BFD0F8D00348
:104BB00008B502F083FD032802D8024B185C08BD3B
:104BC000022008BD9C4F0108024B027853F82200D6
:104BD000704700BFC04F0108024B427833F8120003
:104BE000704700BFA04F01088CB00A2814D8DFE836
:104BF00000F01523313F4D5B6977859306004D4BDF
:104C0000D3F8E02042F48062C3F8E020D3F8E0302B
:104C100003F480630B930B9B0CB07047454BD3F8A8
:104C2000E02042F00102C3F8E020D3F8E03003F0C6
:104C300001030193019BEFE73E4BD3F8E02042F0E4
:104C40000202C3F8E020D3F8E03003F0020302933D
:104C5000029BE1E7374BD3F8E02042F00402C3F8AF
:104C6000E020D3F8E03003F004030393039BD3E781
:104C7000304BD3F8E02042F00802C3F8E020D3F82C
:104C8000E03003F008030493049BC5E7294BD3F8F5
:104C9000E02042F01002C3F8E020D3F8E03003F047
:104CA00010030593059BB7E7224BD3F8E02042F0B1
:104CB0002002C3F8E020D3F8E03003F0200306938D
:104CC000069BA9E71B4BD3F8E02042F04002C3F853
:104CD000E020D3F8E03003F040030793079B9BE705
:104CE000144BD3F8E02042F08002C3F8E020D3F860
:104CF000E03003F080030893089B8DE70D4BD3F859
:104D0000E02042F48072C3F8E020D3F8E03003F4EE
:104D100080730993099B7FE7064BD3F8E02042F4A8
:104D20000072C3F8E020D3F8E03003F400730A9374
:104D30000A9B71E700440258704700BF0F4B1B7875
:104D40000BB90120704710B504464FF47A700C4A35
:104D5000B0FBF3F31068B0FBF3F000F0C1FE0F2CD2
:104D600000D808B1012010BD002221464FF0FF30CD
:104D700000F056FE034B00201C6010BD5C000024B8
:104D8000540000246000002438B50320124D00F0C8
:104D900035FE124C04F0B4FB114A12499369C3F377
:104DA0000323CB5C03F01F0320FA03F30E202B60D8
:104DB000926902F00F028A5C02F01F02D340236066
:104DC000FFF7BCFF10B10124204638BD0446FFF7B1
:104DD000B3FF204638BD00BF540000245800002413
:104DE00000440258884F0108034A044B11681B789D
:104DF0000B441360704700BFF41A00245C000024C9
:104E0000014B1868704700BFF41A002438B50446F7
:104E1000FFF7F6FF0546631C02D0044B1B781C44C9
:104E2000FFF7EEFF431BA342FAD338BD5C0000241A
:104E3000014B1868000C70470010005C704700BF01
:104E4000806B08B5FFF7FAFF08BD00BF836B5A6D92
:104E500012F0500F5A6D10B51DD1196842F400724E
:104E60005A650A6812F0080FCA681BD012F4406F26
:104E70000DD1CA6894040AD45A6D22F480725A651E
:104E80005A6DD10403D45A6D42F001025A65184696
:104E9000FEF7AAF810BDD2060AD4DB6CBDE81040BC
:104EA000DB6C18479007E7D01846FEF79DF8F1E74E
:104EB0001846FEF73DF910BD806B08B5436D43F011
:104EC00040034365836D43F004038365FEF730F9C7
:104ED00008BD00BFF0B5002283B0019290F85020C9
:104EE000012A00F01C81034601201A6883F8500053
:104EF0009468640700F18A800C68C4F31305002DE0
:104F000040F08F80C4F38464A0404D684FF01F0EC2
:104F1000D6694FEA951C30430CF00C0CD06105F0BB
:104F20001F0002F1300584400EFA00FE5CF8050017
:104F300020EA0E0004434CF80540906840076ED408
:104F4000956815F0080547D10C68072002F1140692
:104F5000B94F4FEAD45CC4F304540CF0040C00FACB
:104F600004FE886800FA04F45CF8060020EA0E00EB
:104F700020434CF80600386800F07040B0F1805FC4
:104F800000F0C580D068D668C70600F1E880C6F397
:104F900082064869760000FA06F60F69042F00F0D1
:104FA000C18002F16004086854F827C000F0F8409E
:104FB0000CF0004C40EA0C00304344F82700487ED7
:104FC0000E69012854F8260008BF4FF0004520F074
:104FD0000040054344F826509068C40714D4CE68B6
:104FE000086806F01807954CD2F8C050FC40C0F392
:104FF0001307044025EA07052C43C2F8C040904C33
:10500000A64246D0002816DB002003E05A6D42F08D
:1050100020025A65002283F8502003B0F0BD90684A
:10502000DAE794FAA4F5B5FA85F5C4F3846405F0DB
:105030001F05A84069E783498A4200F0B68001F560
:1050400080718A4200F0B1807F4D804CA968A468CD
:1050500001F0E076E44304F00104002C00F0B48099
:105060007B4CA04200F0FC807A4CA04200F01A81F8
:10507000794CA042C8D14902C6D474498A42C3D1EE
:10508000AA68002022F0E072324342F48002AA6053
:10509000C0E7002F6AD090FAA0F4B4FA84F4013487
:1050A00004F01F04092C00F2A48090FAA0F4B4FAD2
:1050B00084F490FAA0F5B5FA85F50134012601359E
:1050C000A40605F01F0504F0F84406FA05F52C4384
:1050D00090FAA0F0B0FA80F0304400F01F0000EB2E
:1050E000400000052043C60D02F11405C0F3045032
:1050F000072406F0040604FA00F7745924EA0704AA
:105100008F6807FA00F02043705108687AE7D66884
:105110004869C6F38206760000FA06F63DE70220EB
:1051200003B0F0BD106E0C6800F0F840A506B0EBBF
:10513000846F30D0506E00F0F840854226D0906EDB
:1051400000F0F84085422BD0D06E00F0F840854248
:105150007FF442AFD06E20F00040D0663CE7760886
:10516000486906F0080600FA06F616E7800E441CA9
:1051700004F01F06092E2DD8A406012004F0F844DF
:10518000B040044306EB46000005ABE7506E20F04C
:1051900000405066D3E7106E20F000401066C9E76B
:1051A000906E20F000409066CEE7264C2B4D04F523
:1051B0008074A96854F8F86CA468344301F0E07670
:1051C000E44304F0010448E75A6D012042F0200254
:1051D0005A651FE706EB4600A50601241E3805F0B8
:1051E000F84504FA06F60005354340F00070284300
:1051F00079E790FAA0F5B5FA85F590FAA0F4B4FA3B
:1052000084F4013501260134AD0604F01F0405F0D5
:10521000F84506FA04F4254390FAA0F4B4FA84F4AD
:10522000344404F01F0404EB4404A4F11E00000500
:1052300040F00070DBE700BF0010005CFFFF0F00D4
:105240000000FF470020024000630258006002583F
:10525000000084CB000052C70000B8CF00230240FA
:1052600008023FF5D1AE17498A427FF4CDAE164A07
:10527000A9681268154821F0E07192093143A0FB3A
:10528000020241F400019209A96052000192019AC0
:10529000002A3FF4B9AE019A013A0192019A002A1C
:1052A000F9D1B1E611F080707FF4AEAE05498A42C3
:1052B0007FF4AAAEAA6822F0E072324342F0807214
:1052C000AA60A7E60060025854000024632D3E0542
:1052D00003689A68D20701D5002070479968214A6F
:1052E000114270B5044608D0636D012043F01003ED
:1052F0006365A36D0343A36570BD99681A4A0A40AC
:1053000042F001029A60FFF77BFD2368174A0546C9
:1053100093421ED002F5807293421AD0144A9268CA
:10532000114E0AE09A68324042F001029A60FFF79B
:1053300067FD401B0228D7D823681A68D2070FD40C
:105340009A68D107EED5FFF75BFD401B0228F3D921
:10535000CAE7084A9268D006E2D0074A9342DFD1F2
:10536000002070BD3F000080C0FFFF7F0020024092
:105370000063025800230240002102402DE9F04161
:105380003A4D044600680F461646A84219D0384BDD
:10539000984216D0374DAB688068420716D494F80F
:1053A0005020012A12D003F01F080122B8F1090F82
:1053B00084F850200DD90023012084F85030BDE836
:1053C000F0812D4DAB6880684207E8D50220BDE82A
:1053D000F08140F2212323FA08F3DB4313EA0205AC
:1053E000E9D12046FFF774FF002839D1626D234BC5
:1053F0002168134043F480736365B8F1000F02D055
:105400001B4B994203D0636D23F480136365636D76
:1054100013F4805328D0A36D23F00603A365E06C3A
:105420003346174D3A464031C563164D0564164D57
:10543000C5641C2541F8405C002584F8505051F8A3
:105440003C5C45F0100541F83C5C00F059FE2268D8
:105450000E4B91680B4043F004039360BDE8F0816C
:1054600084F85050BDE8F081A365D8E700200240E1
:10547000002102400063025800230240FEF0FFFFBB
:105480004D4E0008414E0008B94E0008C0FFFF7F96
:1054900038B503689A68910702D59B68002038BD2B
:1054A0009A68D20723D59A68044602F00D02012AB1
:1054B00008D0636D012043F010036365A36D0343BF
:1054C000A36538BD986803210A4A024042F00202EF
:1054D0009A601960FFF794FC054604E0FFF790FC22
:1054E000401B0228E5D823689B68DB07F6D4002020
:1054F00038BD00BFC0FFFF7F38B5574A0446036878
:10550000934226D002F58072934222D0534B9B687F
:1055100013F4403F22D004F0ADF963680546B3F5BB
:10552000003F00F08880B3F5403F70D0B3F5803F76
:1055300000F08180FFF77CFC41F2030398422DD8F4
:10554000474B9D425DD92268936843F48073936012
:1055500038BD444B9B6813F4403FDCD14FF400202E
:1055600005F054FA63680546B3F5101F6DD008D8EE
:10557000B3F5E01F55D01AD9B3F5001FDAD14509AC
:10558000D8E7B3F5201F4AD0B3F5301FD2D1FFF7CB
:105590004FFC41F20303984233D92D0A324B9D420E
:1055A0001DD82268936823F44073936038BDB3F527
:1055B000801F06D00AD9B3F5A01F02D0B3F5C01FD3
:1055C000B8D19B0C5B00B5FBF3F5B3E7B3F5002F47
:1055D000F7D023F40022B2F5802FF2D0AAE7234BB4
:1055E000234A2B4493421ED9224B234A2B449342F5
:1055F000226893682BD823F4407343F400739360BC
:1056000038BD2268936823F48073936038BD8508A1
:10561000FFF70EFC41F203039842BFD890E7C5099B
:1056200088E7050986E72268936823F4407343F40A
:105630008073936038BD1B0CB5FBF3F5FFF7F8FBE7
:1056400041F203039842A9D87AE7850972E743F447
:105650004073936038BD00BF0020024000630258D1
:10566000002D310100230240105E5F00EFA1A0FF7A
:105670000F5E5F00DF4341FF1FBCBE0030B500235B
:1056800083B00193002800F0D080456D0446002DC2
:1056900000F0BA80226893689B0003D59168714B33
:1056A0000B4093609368DD0015D46F4B90686F4991
:1056B0001B6801406E489B0941F08051A0FB030329
:1056C00091609B090193019B2BB1019B013B0193CD
:1056D000019B002BF9D19368D80024D4636D012578
:1056E00043F010036365A36D2B43A365936813F028
:1056F000040F636D1DD1D9061BD4636D23F4817330
:1057000043F0020363659368DB0728D4594B9A4240
:1057100017D003F580739A4213D0574B9B68D90773
:105720001DD4564A15E09368002513F0040F636DED
:10573000E1D0636D012543F010032846636503B093
:1057400030BD4C4A4E4B92689B681343D80706D431
:105750004C4A9368616823F47C130B439360FFF712
:1057600067FB41F20303A1689842237F52D894F863
:1057700015C01A04206B42EA4C3202430A43012B43
:1057800003D1236A013B42EA4342636A23B103F433
:105790007873A16A0B431A4323683B49D8680140D8
:1057A0000A43DA609A6812F0040F9A681CD1120753
:1057B0001AD4D868354A217D024042EA8132E16A32
:1057C0000A43DA6094F83820012A3AD01A6922F0A4
:1057D00001021A611A692046616B22F070420A4385
:1057E0001A61FFF789FE2368E268012A21D01A6B4B
:1057F00022F00F021A63636D284623F0030343F07F
:105800000103636503B030BDFDF79CFBA56584F81B
:1058100050503FE71029AAD1617D1A0442EA413273
:10582000216B0A4342F01C02A9E70125284603B078
:1058300030BD196BA26921F00F01013A0A431A63C6
:10584000D9E7D4E9102118690A43114901400A43F4
:10585000A16C0A43E16B42EA014242F001021A6183
:10586000B8E700BFC0FFFF5F54000024C0FFFF6F18
:10587000632D3E050020024000600258006302587C
:10588000002102400023024003C0F0FFFCBFFFFFE5
:105890001EF800FCF0B5002383B0019390F850305F
:1058A000012B40D0012304460E46154680F85030A7
:1058B000FFF7EEFDE8B9676D05F080421B4B06F47B
:1058C00080311B4D3B401B4F43F00203636523684F
:1058D0009E68354015430D4345F000459D609A682C
:1058E000002A0FDB636D23F0030343F001036365BC
:1058F00003E0636D43F010036365002384F85030C8
:1059000003B0F0BD019A01320192019ABA42E6D980
:10591000636D0022012023F0120384F8502043F02D
:1059200010036365ECE7022003B0F0BDFDEEFFFF5E
:10593000C0FFFE3FFF955A55F0B490F850200E6816
:10594000012A49D00346294A01201C6883F85000E7
:10595000944208D05A6D002142F0200283F8501082
:105960005A65F0BC7047224DAA6852070AD5A26852
:105970005A6D012042F020025A65002283F850201F
:10598000F0BC7047A06810F00400F1D1C6B1DFF898
:1059900068C04F68DCF8082022F440423A43CCF853
:1059A0000820A468AA682243D40713D48A68DCF8C4
:1059B000081016430F4A0A401643CCF80860DCE78B
:1059C0000D498A6822F440428A60A068AA680243AE
:1059D000D00704D50020D0E70220F0BC70478C68C7
:1059E0003046044A22408A60C7E700BF00200240D8
:1059F00000210240E0F0FFFF0023024006494FF67D
:105A0000FF0C0002054BCA6800F4E06002EA0C02D9
:105A100010430343CB60704700ED00E00000FA053F
:105A20001B4BDB68C3F3022300B5C3F1070E03F180
:105A3000040CBEF1040F28BF4FF0040EBCF1060F9A
:105A40001AD9033B4FF0FF3C0CFA03FC22EA0C028C
:105A50004FF0FF3C00280CFA0EFC21EA0C0101FA81
:105A600003F141EA02010ADB09010A4BC9B203440E
:105A700083F800135DF804FB00221346E8E700F00A
:105A80000F000901044BC9B2034419765DF804FB09
:105A900000ED00E000E100E0FCEC00E0002807DBA6
:105AA00000F01F0101234009024A8B4042F82030D8
:105AB000704700BF00E100E000280DDB4309012230
:105AC00000F01F000549203302FA00F041F82300DE
:105AD000BFF34F8FBFF36F8F704700BF00E100E04F
