:020000040800F2
:1000000000000220010A0008FD0900086D430008F5
:10001000FD090008FD090008FD09000800000000B6
:10002000000000000000000000000000FD090008C2
:10003000FD09000800000000FD090008F142000869
:10004000FD090008FD090008FD090008FD09000878
:10005000FD090008FD090008FD090008FD09000868
:10006000FD090008FD090008FD090008F93E000827
:10007000053F0008552E0008113F00081D3F0008ED
:1000800085E4000829340008FD090008FD0900087E
:10009000FD090008FD090008FD090008FD09000828
:1000A000FD090008FD090008FD090008FD09000818
:1000B00059D8000865D8000871D800085D340008D8
:1000C000FD09000869340008FD090008C9D00008CE
:1000D000D5D00008B9E20008E9E200081DE30008F5
:1000E000FD090008FD09000800000000FD090008E6
:1000F000FD090008FD090008FD090008FD090008C8
:10010000FD090008FD0900087DD80008E1D00008BD
:1001100051E3000885E30008FD090008FD09000817
:10012000FD090008FD09000805D1000839D10008C3
:10013000B9E40008FD090008FD090008FD090008F0
:1001400000000000000000000000000000000000AF
:10015000FD090008FD090008FD090008B9E30008D1
:1001600075340008FD090008014300082543000814
:10017000FD09000849430008FD090008FD090008C1
:10018000FD090008FD090008EDE300081DE4000872
:10019000EDD00008F9D00008FD090008FD090008AD
:1001A000FD090008FD090008FD090008FD09000817
:1001B000193C0008FD090008FD090008FD090008B8
:1001C000FD090008FD090008FD090008FD090008F7
:1001D000FD090008FD090008FD090008FD090008E7
:1001E000FD090008FD090008FD090008FD090008D7
:1001F000FD090008FD090008FD090008FD090008C7
:10020000FD090008FD090008FD090008FD090008B6
:10021000FD090008FD090008FD090008FD090008A6
:10022000FD090008FD090008FD09000800000000A4
:10023000FD090008FD09000800000000FD09000894
:10024000FD090008FD090008FD090008FD09000876
:10025000FD090008FD090008FD090008FD09000866
:10026000FD090008FD090008FD090008FD09000856
:10027000FD090008FD09000851E400080000000025
:10028000FD090008FD090008FD0900080000000044
:0802900000000000FD09000858
:1002A00010B5054C237833B9044B13B10448AFF3B0
:1002B00000800123237010BDE8030024000000002B
:1002C000B855010808B5034B1BB103490348AFF308
:1002D000008008BD00000000EC030024B8550108B0
:1002E00001F0FF01102A2BDB10F0070F08D010F8E7
:1002F000013B013A8B422DD010F0070F42B3F6D1EB
:10030000F0B441EA012141EA014122F007047FF003
:1003100000070023F0E80256083C85EA010586EA5A
:10032000010685FA47F5A3FA87F586FA47F6A5FA96
:1003300087F68EB9EED1F0BC01F0FF0102F00702A2
:1003400032B110F8013B013A83EA010313B1F8D14D
:100350000020704701387047002D06BF354603382E
:10036000073815F0010F07D1013015F4807F02BF67
:10037000013015F4C03F0130F0BC0138704700BFB8
:1003800081F0004102E000BF83F0004330B54FEA46
:1003900041044FEA430594EA050F08BF90EA020FB3
:1003A0001FBF54EA000C55EA020C7FEA645C7FEA46
:1003B000655C00F0E2804FEA5454D4EB5555B8BF69
:1003C0006D420CDD2C4480EA020281EA030382EADA
:1003D000000083EA010180EA020281EA0303362D6C
:1003E00088BF30BD11F0004F4FEA01314FF4801C3F
:1003F0004CEA113102D0404261EB410113F0004F51
:100400004FEA03334CEA133302D0524263EB430307
:1004100094EA050F00F0A780A4F10104D5F1200EA5
:100420000DDB02FA0EFC22FA05F2801841F1000100
:1004300003FA0EF2801843FA05F359410EE0A5F1D4
:1004400020050EF1200E012A03FA0EFC28BF4CF005
:10045000020C43FA05F3C01851EBE37101F00045BB
:1004600007D54FF0000EDCF1000C7EEB00006EEBC8
:100470000101B1F5801F1BD3B1F5001F0CD3490852
:100480005FEA30004FEA3C0C04F101044FEA4452A9
:1004900012F5800F80F09A80BCF1004F08BF5FEA30
:1004A000500C50F1000041EB045141EA050130BD10
:1004B0005FEA4C0C404141EB0101013C28BFB1F522
:1004C000801FE9D291F0000F04BF01460020B1FA6D
:1004D00081F308BF2033A3F10B03B3F120020CDA40
:1004E0000C3208DD02F1140CC2F10C0201FA0CF01E
:1004F00021FA02F10CE002F11402D8BFC2F1200C83
:1005000001FA02F120FA0CFCDCBF41EA0C01904038
:10051000E41AA2BF01EB0451294330BD6FEA040481
:100520001F3C1CDA0C340EDC04F11404C4F120026C
:1005300020FA04F001FA02F340EA030021FA04F37E
:1005400045EA030130BDC4F10C04C4F1200220FAD5
:1005500002F001FA04F340EA0300294630BD21FA13
:1005600004F0294630BD94F0000F83F4801306BFD9
:1005700081F480110134013D4EE77FEA645C18BFCD
:100580007FEA655C29D094EA050F08BF90EA020F64
:1005900005D054EA000C04BF1946104630BD91EA5C
:1005A000030F1EBF0021002030BD5FEA545C05D15F
:1005B0004000494128BF41F0004130BD14F580049E
:1005C0003CBF01F5801130BD01F0004545F0FE4112
:1005D00041F470014FF0000030BD7FEA645C1ABF47
:1005E000194610467FEA655C1CBF0B46024650EA7E
:1005F000013406BF52EA033591EA030F41F40021AA
:1006000030BD00BF90F0000F04BF0021704730B52F
:100610004FF4806404F132044FF000054FF0000104
:1006200050E700BF90F0000F04BF0021704730B5C5
:100630004FF4806404F1320410F0004548BF40429A
:100640004FF000013EE700BF42004FEAE2014FEAEF
:1006500031014FEA02701FBF12F07F4393F07F4FCA
:1006600081F06051704732F07F4208BF704793F0CD
:100670007F4F04BF41F40021704730B54FF46074E0
:1006800001F0004521F000411CE700BF50EA0102E3
:1006900008BF704730B54FF000050AE050EA01028C
:1006A00008BF704730B511F0004502D5404261EBFC
:1006B00041014FF4806404F132045FEA915C3FF43D
:1006C000D8AE4FF003025FEADC0C18BF03325FEADA
:1006D000DC0C18BF033202EBDC02C2F1200300FA8B
:1006E00003FC20FA02F001FA03FE40EA0E0021FAB0
:1006F00002F11444BDE600BF53B94AB9002908BF4E
:1007000000281CBF4FF0FF314FF0FF3000F074B9EC
:10071000ADF1080C6DE904CE00F006F8DDF804E058
:10072000DDE9022304B070472DE9F047089D044637
:100730008E46002B4DD18A42944669D9B2FA82F294
:1007400052B101FA02F3C2F1200120FA01F10CFAD0
:1007500002FC41EA030E94404FEA1C48210CBEFB08
:10076000F8F61FFA8CF708FB16E341EA034306FB91
:1007700007F199420AD91CEB030306F1FF3080F020
:100780001F81994240F21C81023E63445B1AA4B26D
:10079000B3FBF8F008FB103344EA034400FB07F70F
:1007A000A7420AD91CEB040400F1FF3380F00A8150
:1007B000A74240F207816444023840EA0640E41B45
:1007C00000261DB1D4400023C5E900433146BDE8F1
:1007D000F0878B4209D9002D00F0EF800026C5E993
:1007E000000130463146BDE8F087B3FA83F6002EAB
:1007F0004AD18B4202D3824200F2F980841A61EB23
:10080000030301209E46002DE0D0C5E9004EDDE740
:1008100002B9FFDEB2FA82F2002A40F09280A1EB28
:100820000C014FEA1C471FFA8CFE0126200CB1FB7D
:10083000F7F307FB131140EA01410EFB03F0884276
:1008400008D91CEB010103F1FF3802D2884200F203
:10085000CB804346091AA4B2B1FBF7F007FB101195
:1008600044EA01440EFB00FEA64508D91CEB040433
:1008700000F1FF3102D2A64500F2BB800846A4EB8E
:100880000E0440EA03409CE7C6F12007B34022FA79
:1008900007FC4CEA030C20FA07F401FA06F31C43A8
:1008A000F9404FEA1C4900FA06F3B1FBF9F8200CB5
:1008B0001FFA8CFE09FB181140EA014108FB0EF0FB
:1008C000884202FA06F20BD91CEB010108F1FF3A4B
:1008D00080F08880884240F28580A8F10208614457
:1008E000091AA4B2B1FBF9F009FB101144EA014165
:1008F00000FB0EFE8E4508D91CEB010100F1FF3410
:100900006CD28E456AD90238614440EA0840A0FBA7
:100910000294A1EB0E01A142C846A64656D353D07D
:100920005DB1B3EB080261EB0E0101FA07F722FAA1
:1009300006F3F1401F43C5E9007100263146BDE8CA
:10094000F087C2F12003D8400CFA02FC21FA03F32D
:10095000914001434FEA1C471FFA8CFEB3FBF7F0AE
:1009600007FB10360B0C43EA064300FB0EF69E42D3
:1009700004FA02F408D91CEB030300F1FF382FD26C
:100980009E422DD9023863449B1B89B2B3FBF7F614
:1009900007FB163341EA034106FB0EF38B4208D9ED
:1009A0001CEB010106F1FF3816D28B4214D9023E2E
:1009B0006144C91A46EA004638E72E46284605E74C
:1009C0000646E3E61846F8E64B45A9D2B9EB02081D
:1009D00064EB0C0E0138A3E74646EAE7204694E7AD
:1009E0004046D1E7D0467BE7023B614432E73046E0
:1009F00009E76444023842E7704700BFFEE700BFE2
:100A00000B480C4A904203D0121A0B4913F0E2F83B
:100A10000A480B4A904203D0121A002113F0E8F85A
:100A200003F0CEFE13F0B2F800F022FAFEE700BFAA
:100A300000000024E4030024E8550108E803002432
:100A4000A03F0024704700BF704700BF704700BF41
:100A5000704700BF704700BF704700BF704700BFBE
:100A6000704700BF704700BF704700BF10B500213E
:100A70000446324802F092F9DFED317ADFED316A57
:100A8000B0EE677A9FED306A304BA0EE267AC7FE53
:100A9000277AC7FEE67AF4EEC67AC3ED007AF1EE65
:100AA00010FA4CBF01230023002C14BF002003F0D8
:100AB000010000283ED1F4EEC67AF1EE10FA0EDD08
:100AC0009FED237AF4EEC77AF1EE10FA4CBF0123C2
:100AD0000023012C14BF002303F001035BBB9FED37
:100AE0001C7AF4EEC77AF1EE10FA0EDD9FED197A5A
:100AF000F4EEC77AF1EE10FA4CBF01230023022C6A
:100B000014BF002303F00103ABB99FED127AF4EE9A
:100B1000C77AF1EE10FA0DDD9FED0F7AF4EEC77A89
:100B2000F1EE10FA4CBF01230023032C14BF002068
:100B300003F0010010BD184610BD00BF1C040024C6
:100B40000000000000404E450040E74448040024F7
:100B50000000FA440040354500C041452DE9F84306
:100B6000DFF86C80164F174E08F10409164D444605
:100B7000A4EB0800FFF77AFF144B50B11B68032B5E
:100B800007D8DFE803F00218130E337883F001036F
:100B9000337001340137013601354C45E8D1BDE8E9
:100BA000F8832B7883F001032B70F2E7237883F02E
:100BB00001032370EDE73B7883F001033B70E8E726
:100BC0009408002438060024880900244C040024DA
:100BD000640500240000000038B52DED028BDFED28
:100BE000368A3648B0EE680A354D10F057FD9FED55
:100BF000350A324810F060FD9FED330A2F4810F09F
:100C000069FD2846B6EE000A9FED308A10F0D0FD4F
:100C10002846B6EE000A2E4C10F0E8FD2846B7EE46
:100C2000000A10F0D3FD28469FED2A0A10F0E2FDDD
:100C3000DFED296A88FE266A9FED1B3BB7EEC67A78
:100C4000264BB6EE000A2046F7EE005A27EE037B4D
:100C500086FE656AC0FE266A83ED036AC6FEE56A03
:100C60009FED134BB7EEC77BC3ED016AB7EEC77AB2
:100C700037EE447BB7EEC77B83ED047A11F0B8FB07
:100C8000B0EE480A204611F0E3FBB0EE680A2046B9
:100C900011F0CEFB20469FED120ABDEC028BBDE8A1
:100CA000384011F0B3BB00BF333333333333FB3F32
:100CB000333333333333F33F3333333F6805002467
:100CC0004C060024CDCCCC3ECDCC4C3ECDCCCC3D46
:100CD000D40800249A99193F000000005004002411
:100CE000000016430000000038B5414D414C284635
:100CF0002DED028B00F0DEFBB0EE408A3E4810F096
:100D0000CBFA3E48B0EE480A10F0EEFCDFED3C6A4C
:100D10009FED3C7AF7EE003A87FE267A9FED305B36
:100D2000B7EEC77A9FED386A86FE266A9FED2E4B96
:100D300027EE057B002386FE636ADFED345A04F15B
:100D40002C0026EE063AC4ED076AB0EE480AC4ED60
:100D5000086AC4ED096A85EE885AC4ED0A6A85FE00
:100D6000265A84ED053A85FE635AB7EEC77B84EDBB
:100D7000025A84ED016AF6EE005A2383B7EEC77A71
:100D800084ED008AC5FEA65AC5FEE35A37EE447BC1
:100D9000C4ED035AB7EEC77B84ED047A10F062FF0E
:100DA000204694ED000A443011F060FB204694ED9B
:100DB000000A903011F05AFBB0EE480A144811F0C6
:100DC00037F8284600F076FB1248F0EE400AB1EE04
:100DD000000ABDEC028BBDE8384011F079BC00BFC1
:100DE000333333333333FB3F333333333333F33F33
:100DF0000404002450040024680500244C06002448
:100E000000000000CDCC4C3ECDCC4C3F00803B459B
:100E1000D40800248C09002430B5022389B00024B2
:100E2000104D8DF8043003A88DF80540019901F0AC
:100E3000ADFD012203A90423284601F0B5FD284693
:100E400001F096FF03238DF808408DF809309FEDDF
:100E5000060A0648029901F051FDFFF745FF09B067
:100E600030BD00BF1C04002400007A443C0600246E
:100E700008B50021164800F0A9FB0421144800F031
:100E80001DFB0321124800F0F9FAFFF7C5FF01210D
:100E90000F4800F02FFB0F490F4BD1ED007A0F4A9E
:100EA000BDEEE77A0E490A4817EE10CAF8EEC76A97
:100EB0009C4577EEE67A28BF9C46C2ED007AC2F8E0
:100EC00008C000F0D7FAFFF749FEFFF785FEFAE702
:100ED0000404002404000024FF760100000000C088
:100EE0005D130008DFED827AB0EE000AD0ED040A4F
:100EF00060EEE70A30B52DED068B9FED7E8A044645
:100F000083B00D4660EE880A11F096FCD4ED040A19
:100F1000DFED797AF0EE409AB0EE000A60EEE70A73
:100F200060EE880A11F088FCB0EE409A002D40F087
:100F3000A980637E002B40F0A58094ED020A04F1A5
:100F40002C002546DFED6DAA30EE000A10F092FE6F
:100F50009FED6B6AD4ED006AB0EE40AA9FED697A0E
:100F6000B0EE000AC6EE268AD4ED037ADFED610A00
:100F7000443567EE877A67EEA00A11F05DFCDFED7D
:100F8000626AD4ED007A284686EEA77A68EE808AF7
:100F9000C8FEAA8AC8FEC78A27EEA80A11F0EEFA90
:100FA000F1EE087AB0EE080A94ED037A2846A7EE2F
:100FB000270A11F047FBB0EE4A0A284611F07AFAE8
:100FC000F7EE006AD4ED055AB3EE007A94ED086AA4
:100FD000B6EE005A76EEE54AD4ED027A94ED1F8A19
:100FE000A4EE877A67EE277AC7FEAA7AC7FEC57A8B
:100FF00077EE867AF4EEE67AC4ED087AF1EE10FA2E
:1010000060DAD4ED096AB6EE005A94ED017A36EE54
:10101000C86AD4ED076AD4ED047AF4EEC56A67EEC7
:10102000277AA6EE258AF1EE10FAB7EE007AC4ED23
:101030000A7A42DD9FED356AA9EEC67A237E26EE56
:10104000877A204694ED000A002B00F1900084ED91
:10105000077A47FE277A27EE888A28EE800A0190D1
:1010600011F08CFA0198B6EE000A11F0EBFAB0EE2E
:10107000480A019811F01EFA94ED310A03B0BDEC54
:10108000068B30BDF7EE006A94ED047AB6EE006A86
:1010900094ED015AF7EE087ADFED1D5A76EEC76A35
:1010A0009FED1C7A0023A5EE257AE6EE867A63761C
:1010B00067EE877AC4ED077A3FE79FED176AA9EEDE
:1010C000467ABBE777EEE67AC4ED087A12F098FD2F
:1010D00007EE900AFEEE006A9FED107AF8EEE77ACE
:1010E000D4ED055AE7EE876AC4ED096A8BE700BFC5
:1010F0000000A842ABAAAA3D000010420000000078
:10110000000016430000904200007A46A69B443B34
:101110003333333F9A99993E0AD7233B000000307E
:101120002DE9F84F824C8046894620462DED028BF2
:1011300001F0FEFB23791BB1A37A7F2B00F0D8804E
:101140007C4C7D4811F0D6FADFF808B22368071E00
:1011500006461BF8033018BF01270BB1002F63D1DF
:101160000021764810F0E0F8754D2368F0EE408AD3
:10117000EB5C0BB1002F62D10021724810F048FBEC
:10118000236870EE288AEB5C0BB1002F61D100213F
:101190006D48FFF7A7FEDFF8C0A1236870EE288A2C
:1011A0001AF803300BB1002F60D10021674810F00E
:1011B000BBFE236830EE280A1BF8033088ED000AD6
:1011C0000BB1002F5FD100215C4810F0ADF823680F
:1011D000B0EE408AEB5C0BB1002F5ED10021594884
:1011E00010F016FB236830EE088AEB5C13B1002F79
:1011F00040F08A8000215448FFF774FE236830EEE7
:10120000088A1AF803300BB1002F5BD100214F4838
:1012100010F08AFE30EE080A89ED000A002E59D13E
:10122000BDEC028BBDE8F88F0121444810F07CF83A
:10123000434D2368F0EE408AEB5C002B9CD00121EB
:10124000404810F0E5FA236870EE288AEB5C002B2A
:101250009DD001213C48FFF745FEDFF8FCA0236844
:1012600070EE288A1AF80330002B9ED001213748EF
:1012700010F05AFE236830EE280A1BF8033088ED80
:10128000000A002B9FD001212C4810F04DF8236854
:10129000B0EE408AEB5C002BA0D00121294810F071
:1012A000B7FA236830EE088AEB5C002BA2D001214C
:1012B0002548FFF717FE236830EE088A1AF8033036
:1012C000002BA3D00121214810F02EFE30EE080A99
:1012D00089ED000A236801335A4203F0030302F048
:1012E0000302BDEC028B58BF53422360BDE8F88F68
:1012F00017490B6801335A4203F0030302F003025B
:1013000058BF53420B601BE701210F48FFF7EAFD6E
:10131000236838EE008A1AF803100029D2D10B484E
:1013200010F002FE38EE000A89ED000AD2E700BF95
:101330003C060024980800248C0900246805002439
:10134000940800244C06002450040024D4080024EF
:101350004C04002438060024880900247AB170B5B2
:101360000D4616460024D5E9000101EB840100EB8F
:1013700084000134FFF7D4FEA642F4D170BD70475B
:1013800038B524480023244C03604361224603629D
:10139000224911F0C9F922462149224811F0C4F925
:1013A00022462149214811F0BFF92246204921480F
:1013B00011F0BAF922462049204811F0B5F9224629
:1013C0001F492048204D11F0AFF922461F492048FF
:1013D00011F0AAF922461F491F4811F0A5F922462B
:1013E00029461E4811F0A0F9224629461C4811F052
:1013F0009BF9224629461B4811F096F922462946B8
:10140000194811F091F9224618491948BDE83840A9
:1014100011F08AB904040024000000244D0A0008D9
:10142000450A000840040024490A00083C0600243C
:10143000610A00088C090024550A00086805002488
:10144000590A00084C060024510A0008650A0008E1
:10145000500400245D0A0008D4080024000600247B
:101460005C0800242C0500249C080024690A00085C
:10147000000000C0143001F00DBA00BF38B500F113
:10148000140504462DED028B284601F0BFF92846CD
:1014900001F0B8F92846B0EE408A01F0A1F9D0ED8C
:1014A000007AF8EE677A88EE277ABDEC028B84ED3D
:1014B0000E7A38BD143001F0A5B900BF38B500F17F
:1014C000140504462DED028B284601F08DF92846BF
:1014D00001F098F92846B0EE408A01F081F9D0ED8C
:1014E000007AF8EE677A88EE277ABDEC028B84EDFD
:1014F0000E7A38BD253001F043BE00BFF0B503239E
:1015000099B000270125129306462C4B09A8159582
:10151000CDE90E7340F20453ADF84030284BCDE9CD
:101520001357099301F042FD09A801F01BFE0028A2
:1015300036D1244B04AF04460090CDF8423010233E
:10154000394604958DF820301F4BCDE91650CDE972
:1015500006506846059301F093FF0823009A01A9FD
:1015600009A8ADF804508DF806400994029503933C
:1015700000F0E4F800230EA938463024049302F06A
:1015800047FD03224FF07E5309A906F114000B9387
:101590000C93CDE90942049A01F0EAF819B0F0BDC4
:1015A00040F60132074B169704AFADF82420099896
:1015B000CDF84230179500F081F8DBE7040204040F
:1015C00003030001040604030704010B2DE9F043A3
:1015D00004462DED028B83B0002948D0012140F252
:1015E000011200230091ADF804208DF80630304A36
:1015F0000126304B271D304904F12908626040F272
:101600000272A36040F60663E16004F125092682B8
:10161000A4F8252084F82760A4F8293084F82B60EA
:1016200003F084F86946054648B304F130008DF8AC
:10163000066002F0D9FF072D34D104F114052046CD
:10164000FFF75CFF284601F0DDF82846B0EE408A3F
:1016500001F0C6F8D0ED007AF8EE677A88EE277AC6
:1016600084ED0E7A03B0BDEC028BBDE8F08340F24E
:10167000011300918DF80610ADF80430B7E704F1BE
:10168000300002F0B1FF3946204602F041F94846E9
:1016900001F08CFC404601F089FC04F1120000F0DE
:1016A00077F9CAE73946204602F032F9C5E700BFAC
:1016B0000508050905070506050A060610B584B0E4
:1016C00003460124ADF8040003A8ADF80C30ADF8D2
:1016D0000E4001F06BFC214603A801F051FD2046AD
:1016E00002F0B6FE002103A801F04AFD204602F0F8
:1016F000AFFE214603A801F043FD04B010BD00BFBA
:1017000010B5C2F3002384B00C46017C8DF80D2087
:1017100043EA4402FA2402238DF80C2003AA009421
:1017200001F044FF18B10124204604B010BD044666
:101730000A2002F08DFE204604B010BD034670B5AD
:1017400043F8042B044684B007C983E80700A37953
:1017500083B91A210B461E22FA2523742046ADF8C0
:101760000C20022303AA009501F020FF28B10120DC
:1017700004B070BD1B210B46EDE70A2002F068FEA5
:101780004FF4B85200950223ADF80C20204603AA6E
:10179000217C01F00BFF0028E9D10A2002F058FE5D
:1017A00041F2027200950223ADF80C20204603AAF4
:1017B000217C01F0FBFE0028D9D10A2002F048FE6E
:1017C000042200950223ADF80C20204603AA217CB8
:1017D00001F0ECFE0028CAD10A2002F039FE0622F0
:1017E00000950223ADF80C20204603AA217C01F0CD
:1017F000DDFE0028BBD10A2002F02AFE41F20822B9
:1018000000950223ADF80C20204603AA217C01F0AC
:10181000CDFE0028ABD10A20064602F019FE009545
:10182000022303AA217C2046ADF80C6001F0BEFE25
:1018300000289CD1304602F00BFE009522790C2343
:101840002046002A8DF80C3003AA4FF0020314BF83
:10185000622142218DF80D10217C01F0A7FE0028A5
:1018600085D1304602F0F4FD2279D4E902310B43F0
:10187000DBB20AB943F0400362790AB143F02003B6
:101880000E22FA258DF80D302046009502238DF8A2
:101890000C2003AA217C01F089FE00287FF467AFA9
:1018A0000A2002F0D5FD102200950223ADF80C208D
:1018B000204603AA217C01F079FE00287FF457AF6F
:1018C0000A2002F0C5FD122100950223ADF80C108C
:1018D00003AA217C204601F069FE00287FF447AF6F
:1018E0000A2002F0B5FD012209212046FFF708FF7A
:1018F000003818BF01203BE7F0B5102387B0234C18
:10190000012200250126002702A920460195CDE9E4
:1019100002234FF48052CDE9046709F0BFFC642034
:1019200003F0AAF902A94FF480522046CDE90467DA
:1019300002261027CDE9026709F0B0FC032210232C
:1019400002A92046CDE9022300230422CDE9042385
:101950004FF4805209F0A2FC40F23223042202A983
:10196000019310232046CDE90223019A0123059219
:101970004FF48052049309F091FC40F60601204692
:1019800009F0ACFC284607B0F0BD00BFA409002454
:101990001C4B00221C494FF0400C30B5054689B065
:1019A0000220596007219A601A620124DA620A2231
:1019B0004FF4006EDC6006922022CDE90001042085
:1019C0000821CDE9020103201021CDE904010820FE
:1019D0006946C3E904024FF4C072181DC3E906C288
:1019E0004FF48052C3E909E209F02EFC38B92846C9
:1019F000FFF782FF003818BF012009B030BD204634
:101A000009B030BDA009002440410052614A0021C4
:101A1000D0B513688EB00A91002B40F0B9805E4BB0
:101A200001214FF683700C2411600221D3F8D420D9
:101A30000026032742F48052C3F8D420D3F8D420E0
:101A400002F480520092009AD3F8E02042F0100293
:101A5000C3F8E020D3F8E02002F010020192019ACE
:101A6000D3F8E02042F04002C3F8E020D3F8E020B1
:101A700002F040020292029AD3F8E02042F00802FB
:101A8000C3F8E020D3F8E02002F008020392039AA2
:101A9000D3F8E02042F48072C3F8E020D3F8E020CD
:101AA00002F480720492049AD3F8E02042F080029B
:101AB000C3F8E020D3F8E02002F080020592059AF6
:101AC000D3F8E02042F02002C3F8E020D3F8E02071
:101AD00002F020020692069AD3F8E02042F00402B7
:101AE000C3F8E020D3F8E0300C9403F0040307932C
:101AF0000323079A0B93CDE9080108A9274804F0AE
:101B000041FF48F23712022308A925480C94CDE979
:101B10000823CDE90A6704F035FF4CF20372022373
:101B200008A920480C94CDE90823CDE90A6704F000
:101B300029FF40F2FF62022308A91B480C94CDE95B
:101B40000823CDE90A6704F01DFF4FF60C7202234B
:101B500008A916480C94CDE90823CDE90A6704F0DA
:101B600011FF4FF63F02022308A911480C94CDE95A
:101B70000823CDE90A6704F005FF2022022308A903
:101B80000A480C94CDE90A67CDE9082304F0FAFE6F
:101B90000EB0D0BD9C090024004402580010025829
:101BA00000180258000C025800200258001C02586D
:101BB000001402582DE9F04FDFF8108406460D4658
:101BC000144608F118002DED028B89B000AF02F029
:101BD00017FBD8F8183073B3D8F81C30D8F8049035
:101BE000002B43690BBF4FF0080A4FF0100A4FF06B
:101BF000020B4FF0040BB9F1000F2AD0A200EA4605
:101C0000012B02F1070222F00702ADEB020D68463C
:101C1000ADEB020D694600F03F81022B00F0D6804B
:101C2000002B6FD02246C847D5462437BD46BDECB1
:101C3000028BBDE8F08FD8F81C30002BF5D0D8F817
:101C400004904FF0080A4FF0020B4369B9F1000FFE
:101C5000D4D1FB61D8F80030BB61002BE5D0D5486A
:101C600002F040FB6B46BBF1020F786108EE103AC0
:101C7000FB6900F083816A465146A2EBC402954697
:101C80006200EA46B2FBFBF2AAEBC40085460AEB0F
:101C90008200EE46F861ADEB010DF8690EEB820CA7
:101CA000C7F810C0EC46ADEB010D00EB8201CCF89B
:101CB0000400CCF8081001EB82013869E946CCF841
:101CC0000C1000EB8201CCF800A001EB8202C9E904
:101CD00000E0C9E90212012B00F06483022B00F03E
:101CE0006C82002B00F08081620849466046BB6927
:101CF000984718EE103A24379D46BD46BDEC028B3E
:101D0000BDE8F08F002C8DD01A46D8ED0C6A9FEDFF
:101D1000B27A8446331D36F922E00CF1080C07EE46
:101D200090EA33F922E00232F8EEE77A944267EE65
:101D3000877A67EEA67A4CED027A07EE90EAF8EE23
:101D4000E77A67EE877A67EEA67A4CED017AE2D8F9
:101D5000F9612246C847984ED8ED0D6A0020F9690E
:101D60002B1D9FED9E7A9FED9E6ADFED9E5A22E02D
:101D7000F4EEC67AF1EE10FAC0F2C88447F6FE72AD
:101D8000D1ED017A45F8202066EEA77AF4EEC77A05
:101D9000F1EE10FA40F2F080F4EEC67AF1EE10FAAD
:101DA000C0F2D58447F6FE7243F820200230083195
:101DB00084427FF639AFD1ED007A66EEA77AF4EE71
:101DC000C77AF1EE10FAD3D83246D9E7002C3FF4A7
:101DD00029AFD8ED0C6A84469FED787A0022331D36
:101DE0008E4656F822100CF1080C07EE901A53F8A4
:101DF00022100232F8EEE77A944267EE877A67EEB5
:101E0000A67A4CED027A07EE901AF8EEE77A67EEC2
:101E1000877A67EEA67A4CED017AE2D871462246BF
:101E2000C7F81CE0C847664ED8ED0D6A0020F96976
:101E30002B1D9FED6A7A9FED6A6ADFF894C120E05E
:101E4000F4EEC67AF1EE10FAC0F279843246D1EDA2
:101E5000017A45F8202066EEA77AF4EEC77AF1EE13
:101E600010FA40F28780F4EEC67AF1EE10FAC0F272
:101E70005E84324643F820200230083184427FF6E7
:101E8000D3AED1ED007A66EEA77AF4EEC77AF1EE22
:101E900010FAD5D86246DAE7002C3FF4C3AED8ED8D
:101EA0000C6A86469FED477A4FF0000C331D56F8BA
:101EB0002C200EF1080E82F40002A2F5000207EEBB
:101EC000902A53F82C200CF1020CF8EEE77A82F4F9
:101ED00000026445A2F5000267EE877A67EEA67AF3
:101EE0004EED027A07EE902AF8EEE77A67EE877AEF
:101EF00067EEA67A4EED017AD9D8F9612246C84735
:101F0000314ED8ED0D6A0020F9692B1D9FED337A13
:101F10009FED336ADFF8BCC01FE0F4EEC67AF1EE45
:101F200010FAC0F2FC833246D1ED017A45F8202048
:101F300066EEA77AF4EEC77AF1EE10FA18D9F4EE4D
:101F4000C67AF1EE10FAC0F2DA83324643F8202066
:101F50000230083184427FF667AED1ED007A66EE3A
:101F6000A77AF4EEC77AF1EE10FAD6D86246DBE72C
:101F70006246EBE762467DE7324615E7A100D646AA
:101F80006208073121F00701ADEB010DEA46ADEB28
:101F9000010D6946ADEB0E0D0AEB8200EC46ADEB90
:101FA0000E0D01EB8202F861E946CCE900A0C9E917
:101FB000001290E6F40900240280FFFF00000030C8
:101FC0000082FF7F0000003482FF7F00D8090024D8
:101FD000007E00807E0080FF0000003804FF7FBF8D
:101FE00004FF7F3F00FEFF46002C00F0C982BBF1DA
:101FF000020FD8F8242000F0FA827969C7F804901B
:1020000002EB810E5FED0C5A8A00DCF808100EF12D
:1020100004007A611A46DCF80C303B61331DD7F8B6
:1020200010903D61FD69C7E902CB8C46834636F9C5
:102030002210D8ED0C7A06EE101A33F9221006EEB3
:10204000901A3EF92210B8EEC66A07EE101AF8EEA2
:10205000E66A3BF92210B8EEC77A26EE256A66EEEC
:10206000A56A27EE257A26EE276A66EEA76A27EE8E
:10207000277A07EE901A51080232F8EEE77A0AEB57
:102080008100944280ED006A05EB810067EEA57A3D
:10209000C0ED006A0CEB810009EB810180ED007A54
:1020A00098ED0C7A67EE877AC1ED007ABFD8D7F841
:1020B00004903D69D7E902CB60466208BB69494696
:1020C0009847D8F82C307A69D8ED0D6A1A441FED7C
:1020D0003D7A1FED3D6A2B1D904602F1040A5FED2B
:1020E0003F5A0022A84ED9E900EC51E0F4EEC67A3E
:1020F000F1EE10FAC0F2C78247F6FE7045F82200F2
:102100000CEB0100D0ED007A66EEA77AF4EEC77A08
:10211000F1EE10FA4BD9F4EEC67AF1EE10FAC0F2F5
:10212000BA8247F6FE70BBF1020F43F822002BD0B3
:10213000D9F808000844D0ED007A66EEA77AF4EEEC
:10214000C77AF1EE10FA36D9F4EEC67AF1EE10FA4B
:10215000C0F2CD8247F6FE7048F82200D9F80C0094
:102160000144D1ED007A66EEA77AF4EEC77AF1EE7B
:1021700010FA1ED9F4EEC67AF1EE10FAC0F2AF8270
:1021800047F6FE714AF82210023294427FF6B1AD52
:1021900051080EEB81008900D0ED007A66EEA77A37
:1021A000F4EEC77AF1EE10FAA0D83046A6E7304632
:1021B000B9E73146E6E73046CEE7002C00F0E08193
:1021C000BBF1020FD8F8243000F0E1817A69DCF825
:1021D000081003EB820EC7F804909300DFED6B5AF2
:1021E0000EF1040000227B61DCF80C303B61331DF2
:1021F000D7F810903D61FD69C7E902CB8C46834654
:1022000056F82210D8ED0C7A07EE101A53F8221067
:10221000B8EEC76A07EE101A5EF82210F8EEC76A29
:1022200007EE101A26EE256A5BF82210B8EEC77A80
:1022300066EEA56A26EE276A27EE257A66EEA76A7D
:1022400027EE277A07EE901A51080232F8EEE77A65
:102250000AEB8100944280ED006A05EB810067EE95
:10226000A57AC0ED006A0CEB810009EB810180EDDD
:10227000007A98ED0C7A67EE877AC1ED007ABFD8C4
:10228000D7F804903D69D7E902CB60466208BB6984
:1022900049469847D8F82C307A69D8ED0D6A1A4427
:1022A0009FED3E7A9FED3E6A131D9246DFF8E4C033
:1022B0000022FB612B1D364ED9E9008E4EE0F4EE74
:1022C000C67AF1EE10FAC0F2FC81304645F82200E1
:1022D0000EEB0100D0ED007A66EEA77AF4EEC77A35
:1022E000F1EE10FA49D9F4EEC67AF1EE10FAC0F226
:1022F000EF813046BBF1020F43F822002AD0D9F813
:1023000008000844D0ED007A66EEA77AF4EEC77AAA
:10231000F1EE10FA35D9F4EEC67AF1EE10FAC0F209
:10232000C98130464AF82200D9F80C000144D1EDA9
:10233000007A66EEA77AF4EEC77AF1EE10FA1ED9AB
:10234000F4EEC67AF1EE10FAC0F2AD813146F869CA
:1023500040F82210023294427FF6CBAC510808EBD1
:1023600081008900D0ED007A66EEA77AF4EEC77A94
:10237000F1EE10FAA3D86046A8E76046BAE76146D6
:10238000E5E76046CEE700BF0280FFFF00000030B7
:102390000082FF7F007E00800000003404FF7FBFCA
:1023A00004FF7F3F002C00F0EB807A690021D8F811
:1023B0002430C7F8109003EB820ED7F81C909300DE
:1023C000FD610EF104021FED0C6A7B61331D1546A1
:1023D00056F821204808D8ED0C6ABBF1020F82F4B0
:1023E0000002A2F5000207EE902A53F8212082F4A1
:1023F0000002B8EEE77AA2F5000227EE067A07EEB1
:10240000902A0AEB8002F8EEE77A27EE267A67EE4A
:10241000867A82ED007A09EB80024FEA800067EE4F
:10242000A67AC2ED007A27D05EF8212082F400025D
:10243000A2F5000207EE902A55F8212082F400024E
:10244000B8EEE77AA2F5000227EE067A07EE902AA8
:10245000DCF80820F8EEE77A024427EE267A67EEE9
:10246000867A82ED007A98ED0C7ADCF80C2067EE23
:10247000877A0244C2ED007A02318C42A8D8D7F89C
:10248000109060466208BB694946FD699847D8F8D4
:102490002C307A69D8ED0D6A1A441FED407A1FED91
:1024A000406A131D9246DFF8C4C20022FB612B1D57
:1024B000AB4ED9E9008E4EE0F4EEC67AF1EE10FA9A
:1024C000C0F2C580304645F822000EEB0100D0ED89
:1024D000007A66EEA77AF4EEC77AF1EE10FA49D9DF
:1024E000F4EEC67AF1EE10FAC0F2BF803046BBF1CE
:1024F000020F43F822002AD0D9F808000844D0ED92
:10250000007A66EEA77AF4EEC77AF1EE10FA35D9C2
:10251000F4EEC67AF1EE10FAC0F2AE8030464AF818
:102520002200D9F80C000144D1ED007A66EEA77ABA
:10253000F4EEC77AF1EE10FA1ED9F4EEC67AF1EE97
:1025400010FAC0F28B803146F86940F8221002324E
:1025500094427FF6CEAB510808EB81008900D0EDA4
:10256000007A66EEA77AF4EEC77AF1EE10FAA3D8F5
:102570006046A8E76046BAE76146E5E76046CEE711
:10258000224649466046BB699847FFF7B2BBC7F889
:1025900010B0002298ED0C6A331DDFED726AD7F897
:1025A0001CB0786956F8221007EE901A53F82210E2
:1025B000B8EEE77A07EE901A51080232F8EEE77AA1
:1025C00027EE267A0AEB810E94420BEB810167EE2F
:1025D000A67A27EE067A67EE867A8EED007AC1ED4E
:1025E000007ADFD88300D7F810B07B614DE61A4639
:1025F000C7F810B098ED0C6A331DDFED5B6AD7F8B1
:102600001CB0786936F9221007EE101A33F922103F
:1026100007EE901AB8EEC77A51080232F8EEE77A60
:1026200027EE267A0AEB810E94420BEB810167EECE
:10263000A67A27EE067A67EE867A8EED007AC1EDED
:10264000007ADFD88300D7F810B07B6134E5F0EE74
:10265000675AFEEEE45A15EE900A34E7F0EE675A38
:10266000FEEEE45A15EE901A6EE7F0EE675AFEEEB3
:10267000E45A15EE900A3AE7F0EE675AFEEEE45A95
:1026800015EE900A4BE767EEA57AFDEEE77A17EEB6
:10269000900A00B232E567EEA57AFDEEE77A17EE12
:1026A000900A00B23FE5F0EE675AFEEEE05A15EEF2
:1026B000901A4CE6F0EE675AFEEEE05A15EE900ADC
:1026C00030E6F0EE675AFEEEE05A15EE900AFDE5B0
:1026D000F0EE675AFEEEE05A15EE900A0AE667EE53
:1026E000A57AFDEEE77A17EE901A09B24AE567EE91
:1026F000A57AFDEEE77A17EE900A00B22CE5F0EE2F
:10270000675AFEEEE45A15EE902A1FE467EEA57AAA
:10271000FDEEE77A17EE902A12B2FFF731BBF0EE2A
:10272000675AFEEEE45A15EE902AFFF7FDBBF0EE75
:10273000675AFEEEE05A15EE902AFFF79BBBF0EECB
:10274000675AFEEEE05A15EE902AFFF780BB67EE5F
:10275000A57AFDEEE77A17EE902A12B2FFF724BBB6
:1027600082FF7F0000000030000000387E0080FF04
:1027700030B5184C154685B0046004F1080EEC46DF
:102780000FC98EE80F00D4ED047AF5EEC07A8CE81C
:102790000F00F1EE10FA1ADDB7EE006A94ED057A3B
:1027A00027EE277AC6EE276A84ED0D7AC4ED0C6A0F
:1027B0006DB1204640F8185F01F022FD064903691B
:1027C0000020064A2162A262E36005B030BD01200C
:1027D00005B030BDD80900240020003000000030D2
:1027E00000680830704700BFB1F5807F03680A4673
:1027F00028BF4FF48072B1F5807F9A6094BF0020AB
:10280000012070470068183001F05ABD70B50468A7
:102810008AB0A369E160CBB104F11805284601F044
:10282000EFFC8446EE46E668BCE80F00AEE80F0019
:10283000BCE80F00AEE80F009CE803008EE8030040
:1028400069462846049601F0E3FBF8B9E069D8B17F
:1028500004F11C05284601F0D3FC8446EE46E468EA
:10286000BCE80F00AEE80F00BCE80F00AEE80F00B8
:102870009CE803008EE8030069462846049401F0B2
:10288000C7FB003818BF01200AB070BD01200AB094
:1028900070BD00BF30B5046883B00D46E3694BB12D
:1028A000A3680020E26A616A9B00009004F11C00AA
:1028B00001F0A8FCA3680748A26A9B00216A009067
:1028C00004F1180001F09EFC0020C4E9005003B0A0
:1028D00030BD00BFB51B000810B4074B4FF07E5150
:1028E00030240022032019619C60D8605DF8044BFD
:1028F0005961C3E906227047D809002470B504461F
:1029000082B0C1F30726CDB2ADF8041001F09EFDF0
:102910004FF480724FF001232060A01DA571A280AA
:10292000E671A36002B0BDE8704000F03FBB00BF9D
:1029300038B5044601F08AFD0022236822718342E3
:1029400010D00122A57AE37A954020602271A01D63
:102950006DB243B900F006FC40B22843C0B27F28F4
:10296000A0720AD038BD00F0FDFBB0FA80F040093B
:102970002843C0B27F28A072F4D101F067FD07EEB2
:10298000900AF8EE677AC4ED037A38BD82B04FF052
:10299000000C0323ADF80410BDF8042080F810C02B
:1029A0000280438002B070472DE9F04FBE4E0025F3
:1029B0008FB0BE4C037006F140034260074601929F
:1029C0008846202229463046C4F85831C4F854615C
:1029D000CDE90355CDE90555CDE90755CDE90955B3
:1029E000CDE90B5511F004F92022294604F5997020
:1029F000C4F82151C4F82551C4F82951C4F82D5107
:102A000011F0F6F8019B84F8385284F820317A6886
:102A1000002A5FD02B464146B64604F5907599468C
:102A20004FF0010A03EB0310D1F800B0D1F8048095
:102A30000133D1F808C02218CE6844F800B0C2F8BB
:102A40000480C2F808C0D660087C2EF8029B10747F
:102A50000A7C05F8012F002A69D07A68113184F8C0
:102A600038A29A42DED84FF4802291489DF8043073
:102A700008214FF000084FF00009C4F8743100231A
:102A8000C4E957020122C4F8643184F87031C4E902
:102A90005A2194F83812C4E9608981B3C4F88821B6
:102AA000002284F8713184F878313B78C4E96322DC
:102AB000A3B3012200200121013B84F89421C4E941
:102AC0006801082B2CD8DFE803F0ABB0B5BABFC45F
:102AD000C9CFD6009DF804300121C4F86421C4F8A0
:102AE00074314FF4802384F87021714AC4E957236C
:102AF00008230022C4E95A130023C4E960230123F8
:102B0000002284F87131002384F878310323C4F85B
:102B100088313B78C4E96322002BCAD184F8943110
:102B2000644802F0E1FC034638B1FFBEFEE77A6874
:102B300011319A423FF676AF95E703A95D480393BA
:102B400002F030FE0546002868D1022240F2FF73F1
:102B5000CDE9082300230422CDE90A2394F820318B
:102B6000002B00F0D5804FF0060921E0022B00F089
:102B70008980012B40F0C4809AF80130012B00F0CD
:102B8000C180002B4C4B18BF002306A94948CDE952
:102B9000063902F0D5F8002840F0BF80013594F8DE
:102BA0002031EDB2AB4240F2B380444B53F8259054
:102BB0002FB207EB071704EB070A504600F0F6F9AF
:102BC00005EB051323441B7C042B7DDC022B00F357
:102BD000918000F08D806319002283F81021E35D5D
:102BE000002BC3D19AF80130062B00F08580072B0B
:102BF00000F08A80022B00F09680032B00F0958075
:102C0000002B00F09680012B00F09180042B00F047
:102C10009280052B2A4B18BF0023B6E7FFBEFEE7C4
:102C200003224023C4E966237AE707226023C4E92C
:102C3000662375E70F228023C4E9662370E71F220D
:102C4000A023C4E966236BE73F22C023C4E96623BF
:102C500066E77F22E023C4E9662361E7FF224FF4A1
:102C60008073C4E966235BE740F2FF124FF4907370
:102C7000C4E9662354E740F2FF324FF4A073C4E97D
:102C800066234DE79AF80130042B37D0052B3DD051
:102C9000002B40D0012B42D0022B42D0032B094BFA
:102CA00018BF002371E700BF00400030100A002465
:102CB000002002406C0B00240002B025444D0108A6
:102CC0000000B84F0020903603233E1D04EB05089A
:102CD0004FF0000B264488F8103130460BF1010B01
:102CE00000F064F998F8103104365B45F5DC76E7BE
:102CF0000123EAE70223E8E7104B46E7104B44E7DD
:102D0000002342E70F4B40E70F4B3EE70F4B3CE7FA
:102D10000FB0BDE8F08F0E4B37E7FFBEFEE70D4B5F
:102D200033E70D4B31E70D4B2FE70D4B2DE70D4BE7
:102D30002BE70D4B29E70D4B27E700BF0800900C50
:102D40001000C0102000F0148000501D00018021F0
:102D50000004002A0008302E001060320040C03A03
:102D60000080F03E00005247000021430000844BE9
:102D700038B5094C40F2FF724FF0011104F5AE7501
:102D8000284602F0BDFC94F82021D4F854112846BE
:102D9000BDE8384002F028BA100A0024064B0F297B
:102DA000D3F8543198BF03EB41031B8800EE103A6F
:102DB000BBEEC80A704700BF100A0024214B02680E
:102DC0009A4200D07047204A00232048D2F8D810F9
:102DD00030B51F4C41F0200183B0C4F8C001092078
:102DE00004F5E075C4E971034FF48060C2F8D810AF
:102DF000D2F8D8204FF40061C4E9733094F8380257
:102E000002F02002C4F8D4114FF40051984201920C
:102E10002846C4F8D811C4E97833019B14BF0023B5
:102E20004FF48073C4F8DC3102F0E2FE08B1FFBE5B
:102E3000FEE704F5AE73C4F8A851C4F8F83103B046
:102E400030BD00BF00200240004402584000024054
:102E5000100A0024014803F043BA00BFD00B00243D
:102E600002682DE9F84F4B4B9A4201D0BDE8F88F2C
:102E7000494D95F83832002BF8D095F82031002BC9
:102E800077D0002405F10C0905F5997605F59077C2
:102E9000A04613E003F0010117F811BCA9F10800E6
:102EA00000F06EF9BBF1010F25D895F820310134FF
:102EB00009F111090236A2B293422BD917F8012F5A
:102EC000002AF4D0D5F854310021327833F81400B8
:102ED000D5F8583103EB041323F81200338801337B
:102EE0009BB233805FFA83FA3A789A42D2D88A4604
:102EF000A6F80080D0E7CAF34001A9F1040000F071
:102F00003FF9BBF1020FCAF38001CED0484600F072
:102F100037F9CAE7002395F8380220490922984278
:102F2000C5F8C8314FF48060C5F8C011C5F8C42198
:102F30004FF400614FF40052C5F8CC3108BF4FF494
:102F40008073C5F8D821C5E9740100221448C5E989
:102F50007732C5F8E42102F04BFE08B1FFBEFEE770
:102F600095F82021D5F854110E48BDE8F84F02F02D
:102F70003BB90A4909224FF48060C5F8C831C5E958
:102F800070124FF400614FF40052C5E97330C5E987
:102F90007512DAE700200240100A002440000240C7
:102FA000D00B00246C0B0024704700BF8378022BE9
:102FB00030B504468FB037D0032B33D0012B31D03E
:102FC00000230A93E378012B2AD0022B28D0002378
:102FD0000B93002320460C9301F02CFD0546204660
:102FE00001F030FD23780990082B13D8DFE803F0B7
:102FF0001F3245586B7E91A40500594BD3F8E02051
:1030000042F48072C3F8E020D3F8E03003F4807318
:103010000893089B09A9284603F0B4FC0FB030BD03
:103020000B93D6E70A93CDE711230A93CAE74C4BDB
:1030300009A92846D3F8E02042F00102C3F8E020B5
:10304000D3F8E03003F001030093009B03F09AFCF7
:103050000FB030BD424B09A92846D3F8E02042F01A
:103060000202C3F8E020D3F8E03003F0020301933A
:10307000019B03F087FC0FB030BD394B09A92846EE
:10308000D3F8E02042F00402C3F8E020D3F8E030A7
:1030900003F004030293029B03F074FC0FB030BDF5
:1030A0002F4B09A92846D3F8E02042F00802C3F8C4
:1030B000E020D3F8E03003F008030393039B03F010
:1030C00061FC0FB030BD264B09A92846D3F8E0209B
:1030D00042F01002C3F8E020D3F8E03003F0100310
:1030E0000493049B03F04EFC0FB030BD1C4B09A9A8
:1030F0002846D3F8E02042F02002C3F8E020D3F8BD
:10310000E03003F020030593059B03F03BFC0FB078
:1031100030BD134B09A92846D3F8E02042F0400205
:10312000C3F8E020D3F8E03003F040030693069B99
:1031300003F028FC0FB030BD094B09A92846D3F88D
:10314000E02042F08002C3F8E020D3F8E03003F042
:1031500080030793079B03F015FC0FB030BD00BF41
:103160000044025838B5054601F064FC0446284680
:1031700001F068FC01462046BDE8384003F00ABE75
:1031800070B506460D4601F055FC0446304601F088
:1031900059FC2A1E0146204618BF0122BDE8704096
:1031A00003F0FEBD0023122270B586B0CDE90223E4
:1031B00004930368032B01D804230593061D841D83
:1031C000304601F037FC0546304601F03BFC034633
:1031D00001A92846019303F0D5FB204601F02AFC03
:1031E000034620461C4601F02DFC01A9034620465B
:1031F000019303F0C7FB06B070BD00BF634A0368CC
:10320000934210B58CB028D0614A934258D0614A9D
:10321000934200F09480604A934201D00CB010BDFC
:103220005E4C5F48D4F8E03043F00203C4F8E0306D
:10323000D4F8E03003F002030A930A9BFFF7B2FFD1
:10324000D4F8F43043F08003C4F8F430D4F8F43008
:1032500003F080030B930B9BE0E7504C5148D4F8EC
:10326000E03043F00203C4F8E030D4F8E03003F07B
:1032700002030193019BFFF795FFD4F8E830002289
:103280001F2043F400131146C4F8E830D4F8E830A6
:1032900003F400130293029BD4F8D83043F00103E7
:1032A000C4F8D830D4F8D83003F001030393039B5B
:1032B00002F0ECFA1F200CB0BDE8104002F024BB75
:1032C000364C3948D4F8E03043F08003C4F8E0309D
:1032D000D4F8E03003F080030493049BD4F8E0308A
:1032E00043F00203C4F8E030D4F8E03003F0020306
:1032F0000593059BFFF756FFD4F8E8300022212004
:1033000043F480031146C4F8E830D4F8E83003F4FD
:1033100080030693069BD4F8D83043F00103C4F829
:10332000D830D4F8D83003F001030793079B02F09C
:10333000ADFA21200CB0BDE8104002F0E5BA1B4800
:10334000FFF730FF154B00224820D3F8E840114624
:1033500044F40004C3F8E840D3F8E84004F400045F
:103360000894089CD3F8D84044F00104C3F8D8402E
:10337000D3F8D83003F001030993099B02F086FAD1
:1033800048200CB0BDE8104002F0BEBA0054004026
:1033900000580040005C0040001C005800440258E7
:1033A000D80E0024500C0024280D0024000E002408
:1033B0002DE9F0431A4B87B000254FF010099E46C7
:1033C000EC46184BFF22E04667461A700EF11806CD
:1033D0000EF13004CDE90055CDE90255ADF800906D
:1033E000BCE80F00CDE90455AEE80F009CE80300EF
:1033F0000095ADF800908EE80300B8E80F000FC606
:103400009CE803000095ADF8009086E803000FCF1C
:103410000FC49CE8030084E8030007B0BDE8F08314
:10342000080000244C0C002410B5EFF3108472B691
:10343000084B1A78120602D504B962B610BD1B7883
:10344000D82205485BB202FB0300143002F048FFAB
:10345000F2E700BF4C0C0024500C0024014804F09B
:1034600037BB00BFDC0C0024014804F031BB00BFB7
:10347000B40D0024014804F02BBB00BF8C0E0024C7
:103480002DE9F0430F68D8243F4D85B007FB04F4C5
:10349000032F05EB0403036040DCCB680E46012BD1
:1034A0003CD84DD04FF0D808B646DFF8FC9008FB6A
:1034B0000758BEE80F00C446ACE80F00DEF8003045
:1034C0000DF1100ECCF80030D8F808C099E80F00C4
:1034D0000EE90F000EEB8703BCF1010F53F8103C0F
:1034E000C8F88C3031D0BCF1020F42D0BCF1000FD3
:1034F00035D0317C8C34D823002201202C4403FBAE
:1035000007534900C3E92602C3F894102046C3E9D3
:103510002822C3E92A2204F0CDF818B1012005B011
:10352000BDE8F0830146204604F0DEFA0028F5D11C
:103530000146204604F002FB003818BF0120EEE7E8
:103540000B7C103B672BADD9E8E701F0EDF80F4B92
:1035500098420CBF0E4B0F4BC8F89030C9E701F0F2
:10356000E3F80A4B98420CBF0B4B0C4BC8F8903059
:10357000BFE701F0D9F8054B98420CBF084B094B47
:10358000C8F89030B5E700BF500C0024000E2707A4
:103590002D0FB0303211D0205F4390608A62E0304E
:1035A000200BA0101A098010104D01082DE9F041E0
:1035B000D0F8008082B00D4617461E4608F18C04F4
:1035C000204604F08DFA2028FAD1D8F80C3073B9CF
:1035D0006D002046089C33463A46A9B2009404F098
:1035E000BFF8003818BF012002B0BDE8F081089B89
:1035F00032463946204604F087F9F2E7044B1022A0
:103600001A7483F8E82083F8C02183F89822704761
:10361000500C002430B5002395B04FF48071062281
:1036200004460B9306921393CDE90C13CDE90E33A8
:10363000CDE9113301F07AF807282BD004F11005F9
:1036400041F2883206A9284605F08AF828B10123FC
:10365000184684F85C3015B030BD0222022306A95A
:103660002846CDE9002310220123CDE902230022C0
:103670004FF48003CDE9042305224FF080730692B6
:103680006A460F9341F2883305F0D6F90028DED15F
:1036900015B030BD0323012084F85C3015B030BD77
:1036A00070B50023A4B04FF080724FF480750446CB
:1036B000ADF806300D93CDE910320122CDE90E535D
:1036C000CDE91223CDE91433002943D0F02300F1D2
:1036D000100508AEADF80630C02341F288323146FD
:1036E0002846089305F03CF828B10123184684F8D1
:1036F0005C3024B070BD41F288320DF106012846DD
:1037000005F098F803460028EFD105224FF48071A8
:103710001E93284616924FF080721B9321931F929E
:1037200002AA9FED1F7BCDE91C13CDE922338DED5D
:10373000027B9FED1D7B41F2883316A98DED047B42
:103740009FED1B7B8DED067B05F076F90028CCD133
:1037500024B070BD00F1100508AE612341F288323B
:1037600031462846089304F0FBFF0028BDD141F202
:1037700088320DF10601284605F0DAF80028B4D1A8
:10378000BDF80630204623F0780343F04003ADF83F
:103790000630FFF73FFF00289ED0A6E7AFF300807A
:1037A0000000000001000000100000000100000007
:1037B00000000000000040002DE9F04F00234FF40E
:1037C000807501264FF0807804462DED028BABB05A
:1037D0008DF8073013932193299314950E96CDF805
:1037E0005C80CDE91533CDE91863CDE91A33CDE915
:1037F0002253CDE92433CDE9273306231C9300F06F
:1038000095FF072808D004F1100741F288321CA95F
:10381000384604F0A5FF40B10123184684F85C3017
:103820002BB0BDEC028BBDE8F08F4FF0020A4FF0D9
:10383000020B4FF0050941F2883308AA1CA938464B
:10384000CDF89480CDF870909FED2D8BCDE908AB2D
:103850004FF0000A4FF4800B8DED0A8BCDE90CABD5
:1038600005F0EAF80028D7D141F2883238460EA98F
:1038700004F076FF0028CFD1402341F288320DF1C9
:10388000070138468DF8073004F0D4FF0028C3D173
:1038900041F288330EA902AA3846CDF83890CDF807
:1038A0005C809FED197B8DED048BCDE906AB8DED32
:1038B000027B05F0C1F803460028ADD1CDF8709029
:1038C0004FF00109CDF894804FF00008219308AA29
:1038D00029931CA938462295CDE92333CDE9273316
:1038E00041F288338DED0A8BCDE90CABCDE9088927
:1038F00005F0A2F8002893D0304684F85C608FE78A
:103900001000000001000000400000004000000026
:103910002DE9F043624CA3B00D46046000F006FFB1
:10392000072800F0A980286823466968AA6807C3A9
:103930001E46AB8926F8043B3046257B677B04F0A6
:10394000F1FEE0B9574B012D4FF00108E061236112
:1039500014BF4FF480134FF40003C4E9058893FAB1
:10396000A3F3B3FA83F34FF48079013BC4F82490B6
:10397000C4E90B003046236204F068FE38B101222E
:10398000134684F85C20184623B0BDE8F083662314
:103990000B90139041F2883206A90693CDE90C9062
:1039A000CDE90E00CDE91100304604F0D9FE002823
:1039B000E5D1992341F2883206A93046069304F0F6
:1039C000CFFE0028DBD105231C9019906A46149382
:1039D0004FF08073219014A91D9341F288339FED1D
:1039E0002A7BCDE91A90CDE91F008DED007B9FED7C
:1039F000287B30468DED027B9FED277B8DED047B90
:103A000005F01AF80028BAD129462046FFF748FEEB
:103A10000028B4D12046FFF7CFFE03460028AED1E0
:103A2000002FB0D1189330460027002606AA14A90B
:103A3000CDF86890CDE91F33EB2314934FF4406326
:103A40001B934FF4005317934FF440431C93A02350
:103A50001693062319934FF0805321934FF0407330
:103A6000CDE906671D9305F05FF8034600288AD06C
:103A7000434684F85C8086E701230322184684F8D5
:103A80005C2023B0BDE8F0830000000001000000CE
:103A900010000000010000000000000000004000D5
:103AA000B00F0024005000522DE9F04F8FB0414B71
:103AB0000024026800AF9A427C63C7E90944C7E961
:103AC0000B4403D03C37BD46BDE8F08F3A4B40F67F
:103AD00009213A48EB46D3F8D42007F11C0607F138
:103AE000220A4FF0020942F480424FF00308C3F863
:103AF000D420D3F8D42002F48042BA60BA68D3F854
:103B0000E02042F04002C3F8E020D3F8E02002F0C9
:103B10004002FA60FA68D3F8E02042F02002C3F8CD
:103B2000E020D3F8E02002F020023A613A69D3F8AD
:103B3000E02042F01002C3F8E020D3F8E02002F0C9
:103B400010027A617A69D3F8E02042F00202C3F8E9
:103B5000E020D3F8E030F86103F002033984BB6160
:103B6000174B7B60BB697B6853F8040F7B6000F0E8
:103B700061FF7B680546186800F064FF16F8013B9A
:103B8000786207F124012846C7F830807B63C7E9D3
:103B90000A9402F0F7FE5645E5D100225C2011465A
:103BA00001F074FE5C2001F0AFFE3C37DD46BD46FF
:103BB000BDE8F08F00500052004402580A0A09097B
:103BC0000C100024114B02689A4200D07047104A32
:103BD00070B5D2F8D4300F4C23F4804304F11806AA
:103BE000C2F8D43054F8040F00F024FF05462068D2
:103BF00000F028FF0146284603F004F8B442F1D152
:103C00005C20BDE8704001F08DBE00BF0050005246
:103C1000004402580C100024014805F011B800BF00
:103C2000C00F0024084B1A1D981D03F1080110B4A1
:103C30009C1C9A6603F10A02C3E91834C3E91B010C
:103C40005DF8044B5A677047B00F002438B503681D
:103C500071B9026A00F1280500F5AC74012A0CBFA5
:103C6000002140218BBB1D4B5722C0F858310DE07D
:103C7000426A00F1C00500F5E874012A0CBF00217A
:103C80004021EBB1164B5A22C0F8D0310023204618
:103C9000C4E901214FF480524FF480616362626194
:103CA0004FF48042C4E903314FF48073C4E9062322
:103CB0004FF40033236201F09BFF58B1FFBEFEE7D3
:103CC000084B5822C0F8D031E0E7074B5922C0F822
:103CD0005831DBE7C5E92044A56338BD1000024038
:103CE0007000024028000240580002402DE9F043D5
:103CF000821D05468BB0031D05F10A010830CDE990
:103D0000052305F10C02AB69CDE907010992002BEF
:103D10003DD0EB69B3FA83F84FEA58180123022229
:103D200005AE0AAF4FF006090393CDE9012356F81B
:103D3000044B2B792278934216D02B68F3B1012BD8
:103D400002D1F2B10A230493204600F07BFE034621
:103D50002046009300F06EFE694602F013FEBE425C
:103D6000E5D10BB0BDE8F083697963789942E4D17D
:103D7000B8F1000FF3D02B68002BE0D1CDF81090F4
:103D8000E2E76378022B14BF0A230823DBE74FF036
:103D90000108C3E7534A0368934230B505468BB028
:103DA00055D02032934252D04F4A934204D0203211
:103DB000934201D00BB030BD4C4C4D48D4F8E030AC
:103DC00043F00103C4F8E030D4F8E03003F001031D
:103DD0000593059BD4F8E03043F00803C4F8E030C5
:103DE000D4F8E03003F008030693069BD4F8E030E3
:103DF00043F04003C4F8E030D4F8E03003F040036F
:103E00000793079BD4F8F03043F40003C4F8F03074
:103E1000D4F8F03003F400030893089BFFF766FF23
:103E2000D4F8D830296843F001032F4A3048C4F849
:103E3000D830891AD4F8D83018BF012103F0010313
:103E40000993099B0BB0BDE83040FFF7FFBE274C3C
:103E50002848D4F8E03043F00103C4F8E030D4F847
:103E6000E03003F001030093009BD4F8E03043F00E
:103E70001003C4F8E030D4F8E03003F010030193ED
:103E8000019BD4F8E03043F04003C4F8E030D4F8AC
:103E9000E03003F040030293029BD4F8F03043F487
:103EA0008003C4F8F030D4F8F03003F480030393B7
:103EB000039BFFF71BFFD4F8D830296843F00103B8
:103EC000084A0C48C4F8D830891AD4F8D83018BF3A
:103ED000012103F001030493049B0BB0BDE83040C3
:103EE000FFF7B4BE04580140045C0140004402588E
:103EF0008412002428100024014802F0F1B900BF08
:103F000080110024014802F0EBB900BFF811002431
:103F1000014802F0E5B900BFDC130024014802F0BB
:103F2000DFB900BF541400241A4A0368934210B446
:103F30000BD02032934208D0174A934216D0203239
:103F4000934213D05DF8044B7047144B0022D3F812
:103F50005442C3F85822002CF4D0D3F84802D3E9D5
:103F6000931223465DF8044B520818470B4B00226E
:103F7000D3F8B044C3F8B424002CE3D0D3F8AC2475
:103F8000D3F8A814D3F8A404520823465DF8044BD0
:103F9000184700BF04580140045C01402810002469
:103FA000184A0368934210B40BD02032934208D0D1
:103FB000154A934217D02032934214D05DF8044B37
:103FC0007047124BD3E994245208C3F85822002CAE
:103FD000F4D0D3E99201234601EB820100EB820089
:103FE0005DF8044B1847094BD3F8AC24D3F8B04420
:103FF0005208C3F8B424002CE0D0D3F8A814D3F8A6
:10400000A404E8E704580140045C0140281000249F
:104010002DE9F04F0C684FF41776754F87B004FB0D
:1040200006F6012C07EB060AC0F800A000F3A080FA
:104030000D468E464FF00008D44669A3D3E900230D
:1040400069A1D1E90001CDE9022306ABCAF850828B
:1040500003EB8403CDE9040153F810BC53F8083C8A
:10406000CAE992880193BEE80F00ACE80F00BEE8F1
:104070000F00ACE80F00019B9EE80300CAF828B0CF
:10408000CAF8C0308CE803002B69042B0CD8DFE899
:1040900003F0737D879103004FF41773554A03FBB8
:1040A00004739A64C3F8E020AA692B6A002A43D0FB
:1040B000002B4FF4177308BF022203FB047318BFD1
:1040C0000322DA6201221A63EA696B6A002A40D18C
:1040D000191E4FF4177318BF012103FB0473C3E9C2
:1040E00031126B69022B05D8434A12F80380434A08
:1040F00052F823904FF4177306F1280042464946C0
:1041000003FB04740023384463646363E365C4F809
:10411000DC30C4F8CC30C4F8F430C4E90F33C4E95F
:104120001533C4E93533C4E93B33022306F02AFED4
:10413000002849D0FFBEFEE7191E4FF4177318BFC1
:10414000012103FB0473C3E90B12EA696B6A002ABD
:10415000BED0002B4FF4177308BF022203FB047379
:1041600018BF0322C3F8C4200122C3F8C820B8E74F
:10417000012007B0BDE8F08F4FF417734FF4FA52E7
:1041800003FB04739A64C3F8E0208DE74FF41773C0
:104190004FF47A5203FB04739A64C3F8E02083E778
:1041A0004FF417734FF4FA4203FB04739A64C3F895
:1041B000E02079E74FF417734BF6803203FB04736A
:1041C0009A64C3F8E0206FE706F1C000022342467C
:1041D0004946384406F0D6FD0028CAD0FFBEFEE7A7
:1041E00004580140045C014024580140245C014013
:1041F0002810002400770100844D0108884D010833
:104200000068704770B5046882B015460E46C4F861
:104210005032C4E99212069AC4F85422A269012AC3
:1042200026D0626A012A9AB211D0294604F1C00050
:10423000019206F063FE236A019A012B10D02946F1
:1042400004F1280006F05AFE002002B070BD04F10F
:10425000C000019206F0E4FE236A019A012BEED120
:10426000314604F1280006F0DBFE002002B070BDEC
:10427000226A012A9AB211D0294604F1280001923B
:1042800006F03CFE636A019A012B10D0294604F126
:10429000C00006F033FE002002B070BD04F128001B
:1042A000019206F0BDFE636A019A012BEED1314600
:1042B00004F1C00006F0B4FE002002B070BD00BFE3
:1042C00003681B69042B05D8044A02EB830393EDB2
:1042D000000A70479FED020A704700BF944D010825
:1042E00000803B470368D3F858027047704700BF0F
:1042F00008B500F0AFFCBDE8084001F08FBB00BF7F
:10430000064808B503680BB102F04EFD0448036887
:104310001BB1BDE8084003F03DBC08BDF018002407
:10432000E8140024064808B503680BB102F03CFD10
:10433000044803681BB1BDE8084003F02BBC08BD6E
:10434000F0180024E8140024064808B503680BB1EF
:1043500002F02AFD044803681BB1BDE8084003F0E1
:1043600019BC08BDF0180024E8140024364BDA6AA2
:10437000520062D59A6A9A6A9A6A9B6A180600D5B0
:1043800000BE314B9B6A990600D500BE2E4B9B6A3E
:10439000DA0600D500BE2C4B9B6A1B0700D500BE79
:1043A000294B9B6A980700D500BE274B9B6AD9070B
:1043B00000D500BE244B9B6A1A0400D500BE224BD8
:1043C0009B6A9B0400D500BE1F4B9B6AD80400D596
:1043D00000BE1D4B9B6A190500D500BE1A4B9B6A97
:1043E0005A0500D500BE184B9B6A9B0500D500BE40
:1043F000154B9B6AD80500D500BE134B9B6A9901EB
:1044000000D500BE104B9B6ADA0100D500BE0E4BF2
:104410009B6A1B0300D500BE0B4B9B6A580300D55B
:1044200000BE094B9B6A990300D500BE064B9B6AF0
:10443000DA0306D400BE00BEFEE7DB6A9B07FAD5AE
:10444000F8E700BEF6E700BF00ED00E000F00EBCAC
:1044500000F012BC2DE9F041CEB004464C22002100
:104460000AA80FF0C5FB2022002102A80FF0C0FB14
:10447000BC2200211EA80FF0BBFB022003F0FEFFB0
:104480002368012B4FF0000354D0534A02250193B7
:10449000C820D16A514B21F00101D162D26A02F0E9
:1044A000010201929A6942F440429A619B6903F4C5
:1044B00040430193019B494A93699B04FCD54849B9
:1044C0000224002201268B6A04274FF0080823F0FB
:1044D000030323438B62052316900AA818934FF415
:1044E00080331096179419941597CDF86880CDE90C
:1044F0001B222122CDE91344CDE90A2304F0A8FCB4
:1045000000B1FEE73F220323294602A8CDE902239A
:1045100000220823CDE9042340224023CDE90623CD
:1045200040234FF48062CDE9082304F0BFFF034627
:10453000B8B1FEE7294A04250093F0209169264B83
:1045400041F440419161926902F440420092DA6A7A
:1045500042F00102DA62DB6A03F001030093009B80
:10456000A9E720224FF4805125934FF440152B9258
:1045700080222D931EA83093269135914FF480719F
:10458000249234920C223394439140F227112092CA
:104590001022CDF884802A971F96CDE92E34CDE9DC
:1045A0003B334FF48033CDE92246319300244693C8
:1045B0000623CDE93E4527934FF48063094C2C93A5
:1045C0001E94CDE9281205F0CDF900B1FEE703F005
:1045D0007BFF4EB0BDE8F08100040058004802584F
:1045E000004402580F130F032DE9F0410D46044615
:1045F00084B0D1E9000184E8030000F0FBFAAE7951
:10460000002E37D06F460AF045F8FEF7D1FE08F0CD
:104610001BFD09F0D3FD2B79002B54D16B799BB195
:10462000BFF34F8FBFF36F8F3C4B0022C3F8502274
:10463000BFF34F8FBFF36F8F5A6942F400325A6154
:10464000BFF34F8FBFF36F8F4FF0FF320023002473
:1046500000253946324802928DF80C30CDE90045EC
:1046600009F012F92E4809F077F908F01DF904B0A5
:10467000BDE8F08120466F46FFF7ECFE012401F013
:104680007BF94FF040534FF4807838460193254B27
:10469000ADF80040CDE9023801F08CF919224FF055
:1046A000404338468DF80F40ADF80D808DF801403D
:1046B0008DF80A608DF80820019301F07BF9042041
:1046C00001F068F99FE7154C0023C4F88430BFF36C
:1046D0004F8FD4F8803043F6E07EC3F3C906C3F3AE
:1046E0004E334FEA431C0CEA0E00334640EA837215
:1046F000013BC4F860225A1CF8D1ACF1200C1CF12B
:10470000200FF0D1BFF34F8F636943F480336361AF
:10471000BFF34F8FBFF36F8F80E700BF00ED00E066
:10472000E01400240E00010304F0F0BF1C4B9B6852
:1047300003F17842B2F5003F25D3B3F5803F20D393
:1047400003F16042B2F5003F1FD303F15C42B2F5C2
:10475000002F1CD303F17042B2F5902F19D303F14F
:104760004842B2F5803F16D303F18042B2F1806F28
:1047700013D303F1E043B3F5000F2CBF082007204B
:1047800070470120704700207047022070470320C7
:10479000704704207047052070470620704700BF0F
:1047A00000ED00E003480023034A044903600DF0D4
:1047B000BBBF00BFE014002400000024ED4200084D
:1047C00010B4204C0022204B83B0D4F888101F482E
:1047D00041F47001C4F8881019681D4C41F00101C2
:1047E00019601A61196808401A4918609A61DA61FB
:1047F0001A629A62DA621A635A639A63DA631A6413
:104800005A64186820F4802018601A66D3F8DC20F7
:1048100042F06042C3F8DC20D3F8DC300193019B06
:1048200023681940B1F1005F03D20B4B0122C3F89A
:104830000821044B4FF000629A6003B05DF8044B0E
:10484000704700BF00ED00E0004402587FEDF6EA3B
:104850000010005C0000FFFF0080005100F5717146
:10486000D0F8040407F008BCC1EBC10300EB8303DC
:10487000D0F80404D3F8082207F02CBCC1EBC10324
:1048800000EB8303D0F804049A6C07F061BC00BF0E
:10489000D0F8040407F000BDC16810B5044619B192
:1048A000022900D0FEE70121D4F8040407F0DEFC61
:1048B000D4F80404BDE8104007F0B0BC10B50446BD
:1048C000D0F8040407F0D6FC2268D2F8003E43F08A
:1048D0000103C2F8003E236A23B1034A136943F07F
:1048E0000603136110BD00BF00ED00E0D0F8040422
:1048F00007F0CABCD0F8040407F0DEBCD0F804040A
:1049000007F0D8BCD0F8040407F0D8BCD0F80404F1
:1049100007F0D6BC9446D0F898021A4608B563460C
:1049200003F09CFC032802D8024B185C08BD02204F
:1049300008BD00BFB84D0108D0F8980208B503F0D3
:104940001BFD032802D8024B185C08BD022008BDDD
:10495000B84D0108D0F8980208B503F051FD0328BE
:1049600002D8024B185C08BD022008BDB84D0108F2
:104970000A06D0F8983206D4C1EBC10103EB8101DD
:1049800091F8FE01704701F07F01C1EBC10103EB1B
:10499000810191F83E007047D0F8980208B503F005
:1049A00047FC032802D8024B185C08BD022008BD52
:1049B000B84D0108D0F8980208B503F0B5FC0328FB
:1049C00002D8024B185C08BD022008BDB84D010892
:1049D000D0F8980208B503F07FFC032802D8024BF8
:1049E000185C08BD022008BDB84D0108D0F8C0020F
:1049F00007F014BFD0F8C00207F028BFD0F8C002FB
:104A000007F030BF704700BFD0F8C00207F016BFF4
:104A1000D0F8C00207F016BFD0F8D00308B502F0F6
:104A200083FD032802D8024B185C08BD022008BD94
:104A3000BC4D0108024B027853F82200704700BFBA
:104A4000E04D0108024B427833F81200704700BF76
:104A5000C04D01088CB00A2814D8DFE800F01523F7
:104A6000313F4D5B6977859306004D4BD3F8E020CD
:104A700042F48062C3F8E020D3F8E03003F48063AE
:104A80000B930B9B0CB07047454BD3F8E02042F0E2
:104A90000102C3F8E020D3F8E03003F001030193F2
:104AA000019BEFE73E4BD3F8E02042F00202C3F84F
:104AB000E020D3F8E03003F002030293029BE1E729
:104AC000374BD3F8E02042F00402C3F8E020D3F8DB
:104AD000E03003F004030393039BD3E7304BD3F898
:104AE000E02042F00802C3F8E020D3F8E03003F001
:104AF00008030493049BC5E7294BD3F8E02042F058
:104B00001002C3F8E020D3F8E03003F0100305935F
:104B1000059BB7E7224BD3F8E02042F02002C3F810
:104B2000E020D3F8E03003F020030693069BA9E7CA
:104B30001B4BD3F8E02042F04002C3F8E020D3F84A
:104B4000E03003F040030793079B9BE7144BD3F837
:104B5000E02042F08002C3F8E020D3F8E03003F018
:104B600080030893089B8DE70D4BD3F8E02042F4B7
:104B70008072C3F8E020D3F8E03003F48073099327
:104B8000099B7FE7064BD3F8E02042F40072C3F89C
:104B9000E020D3F8E03003F400730A930A9B71E736
:104BA00000440258704700BF0F4B1B780BB901201F
:104BB000704710B504464FF47A700C4AB0FBF3F31B
:104BC0001068B0FBF3F000F0C1FE0F2C00D808B164
:104BD000012010BD002221464FF0FF3000F056FEAC
:104BE000034B00201C6010BD58000024500000241E
:104BF0005C00002438B50320124D00F035FE124C45
:104C000004F0B4FB114A12499369C3F30323CB5C4C
:104C100003F01F0320FA03F30E202B60926902F0C9
:104C20000F028A5C02F01F02D3402360FFF7BCFF33
:104C300010B10124204638BD0446FFF7B3FF2046DB
:104C400038BD00BF50000024540000240044025826
:104C5000A84D0108034A044B11681B780B441360EC
:104C6000704700BFB41B002458000024014B186893
:104C7000704700BFB41B002438B50446FFF7F6FFA9
:104C80000546631C02D0044B1B781C44FFF7EEFF63
:104C9000431BA342FAD338BD58000024014B1868C7
:104CA000000C70470010005C704700BF806B08B5B7
:104CB000FFF7FAFF08BD00BF836B5A6D12F0500F6B
:104CC0005A6D10B51DD1196842F400725A650A6810
:104CD00012F0080FCA681BD012F4406F0DD1CA68D9
:104CE00094040AD45A6D22F480725A655A6DD10424
:104CF00003D45A6D42F001025A651846FEF7B0F827
:104D000010BDD2060AD4DB6CBDE81040DB6C18473E
:104D10009007E7D01846FEF7A3F8F1E71846FEF72C
:104D200043F910BD806B08B5436D43F04003436504
:104D3000836D43F004038365FEF736F908BD00BFB9
:104D4000F0B5002283B0019290F85020012A00F0C3
:104D50001C81034601201A6883F850009468640798
:104D600000F18A800C68C4F31305002D40F08F8099
:104D7000C4F38464A0404D684FF01F0ED6694FEA1B
:104D8000951C30430CF00C0CD06105F01F0002F1B3
:104D9000300584400EFA00FE5CF8050020EA0E00A3
:104DA00004434CF80540906840076ED4956815F0B0
:104DB000080547D10C68072002F11406B94F4FEAE5
:104DC000D45CC4F304540CF0040C00FA04FE8868AC
:104DD00000FA04F45CF8060020EA0E0020434CF8C8
:104DE0000600386800F07040B0F1805F00F0C580C8
:104DF000D068D668C70600F1E880C6F38206486925
:104E0000760000FA06F60F69042F00F0C18002F167
:104E10006004086854F827C000F0F8400CF0004C1B
:104E200040EA0C00304344F82700487E0E69012810
:104E300054F8260008BF4FF0004520F0004005431D
:104E400044F826509068C40714D4CE68086806F069
:104E50001807954CD2F8C050FC40C0F3130704402B
:104E600025EA07052C43C2F8C040904CA64246D024
:104E7000002816DB002003E05A6D42F020025A653C
:104E8000002283F8502003B0F0BD9068DAE794FA6E
:104E9000A4F5B5FA85F5C4F3846405F01F05A840B0
:104EA00069E783498A4200F0B68001F580718A4241
:104EB00000F0B1807F4D804CA968A46801F0E076D5
:104EC000E44304F00104002C00F0B4807B4CA042C9
:104ED00000F0FC807A4CA04200F01A81794CA0428C
:104EE000C8D14902C6D474498A42C3D1AA680020F5
:104EF00022F0E072324342F48002AA60C0E7002F41
:104F00006AD090FAA0F4B4FA84F4013404F01F04D7
:104F1000092C00F2A48090FAA0F4B4FA84F490FA78
:104F2000A0F5B5FA85F5013401260135A40605F092
:104F30001F0504F0F84406FA05F52C4390FAA0F09A
:104F4000B0FA80F0304400F01F0000EB4000000594
:104F50002043C60D02F11405C0F30450072406F0E7
:104F6000040604FA00F7745924EA07048F6807FA64
:104F700000F02043705108687AE7D6684869C6F3A4
:104F80008206760000FA06F63DE7022003B0F0BD87
:104F9000106E0C6800F0F840A506B0EB846F30D0BE
:104FA000506E00F0F840854226D0906E00F0F84038
:104FB00085422BD0D06E00F0F84085427FF442AF9E
:104FC000D06E20F00040D0663CE77608486906F0D5
:104FD000080600FA06F616E7800E441C04F01F06C9
:104FE000092E2DD8A406012004F0F844B040044353
:104FF00006EB46000005ABE7506E20F0004050661F
:10500000D3E7106E20F000401066C9E7906E20F0E4
:1050100000409066CEE7264C2B4D04F58074A968BD
:1050200054F8F86CA468344301F0E076E44304F0EB
:10503000010448E75A6D012042F020025A651FE73B
:1050400006EB4600A50601241E3805F0F84504FAD3
:1050500006F60005354340F00070284379E790FAE2
:10506000A0F5B5FA85F590FAA0F4B4FA84F4013508
:1050700001260134AD0604F01F0405F0F84506FAD8
:1050800004F4254390FAA0F4B4FA84F4344404F010
:105090001F0404EB4404A4F11E00000540F000705E
:1050A000DBE700BF0010005CFFFF0F000000FF47C0
:1050B000002002400063025800600258000084CBC8
:1050C000000052C70000B8CF0023024008023FF59D
:1050D000D1AE17498A427FF4CDAE164AA96812684C
:1050E000154821F0E07192093143A0FB020241F41E
:1050F00000019209A96052000192019A002A3FF42E
:10510000B9AE019A013A0192019A002AF9D1B1E6A9
:1051100011F080707FF4AEAE05498A427FF4AAAEEA
:10512000AA6822F0E072324342F08072AA60A7E6D9
:105130000060025850000024632D3E0503689A6801
:10514000D20701D5002070479968214A114270B5F5
:10515000044608D0636D012043F010036365A36D1E
:105160000343A36570BD99681A4A0A4042F00102E0
:105170009A60FFF77BFD2368174A054693421ED0CD
:1051800002F5807293421AD0144A9268114E0AE0D6
:105190009A68324042F001029A60FFF767FD401BB7
:1051A0000228D7D823681A68D2070FD49A68D10783
:1051B000EED5FFF75BFD401B0228F3D9CAE7084A8A
:1051C0009268D006E2D0074A9342DFD1002070BD3A
:1051D0003F000080C0FFFF7F0020024000630258B4
:1051E00000230240002102402DE9F0413A4D0446DF
:1051F00000680F461646A84219D0384B984216D080
:10520000374DAB688068420716D494F85020012AC5
:1052100012D003F01F080122B8F1090F84F85020C2
:105220000DD90023012084F85030BDE8F0812D4DC8
:10523000AB6880684207E8D50220BDE8F08140F203
:10524000212323FA08F3DB4313EA0205E9D12046C0
:10525000FFF774FF002839D1626D234B216813409A
:1052600043F480736365B8F1000F02D01B4B994281
:1052700003D0636D23F480136365636D13F480536F
:1052800028D0A36D23F00603A365E06C3346174DC9
:105290003A464031C563164D0564164DC5641C255C
:1052A00041F8405C002584F8505051F83C5C45F0D2
:1052B000100541F83C5C00F059FE22680E4B9168E5
:1052C0000B4043F004039360BDE8F08184F8505034
:1052D000BDE8F081A365D8E700200240002102402C
:1052E0000063025800230240FEF0FFFFB94C0008A3
:1052F000AD4C0008254D0008C0FFFF7F38B503689E
:105300009A68910702D59B68002038BD9A68D20739
:1053100023D59A68044602F00D02012A08D0636D75
:10532000012043F010036365A36D0343A36538BDFB
:10533000986803210A4A024042F002029A6019600A
:10534000FFF794FC054604E0FFF790FC401B0228A1
:10535000E5D823689B68DB07F6D4002038BD00BF82
:10536000C0FFFF7F38B5574A04460368934226D0F2
:1053700002F58072934222D0534B9B6813F4403F56
:1053800022D004F0ADF963680546B3F5003F00F0A4
:105390008880B3F5403F70D0B3F5803F00F0818046
:1053A000FFF77CFC41F2030398422DD8474B9D4206
:1053B0005DD92268936843F48073936038BD444B91
:1053C0009B6813F4403FDCD14FF4002005F054FA01
:1053D00063680546B3F5101F6DD008D8B3F5E01F1C
:1053E00055D01AD9B3F5001FDAD14509D8E7B3F57E
:1053F000201F4AD0B3F5301FD2D1FFF74FFC41F246
:105400000303984233D92D0A324B9D421DD822689E
:10541000936823F44073936038BDB3F5801F06D0C2
:105420000AD9B3F5A01F02D0B3F5C01FB8D19B0CA9
:105430005B00B5FBF3F5B3E7B3F5002FF7D023F42A
:105440000022B2F5802FF2D0AAE7234B234A2B4447
:1054500093421ED9224B234A2B44934222689368DD
:105460002BD823F4407343F40073936038BD226853
:10547000936823F48073936038BD8508FFF70EFCB2
:1054800041F203039842BFD890E7C50988E70509B0
:1054900086E72268936823F4407343F48073936033
:1054A00038BD1B0CB5FBF3F5FFF7F8FB41F2030326
:1054B0009842A9D87AE7850972E743F4407393606C
:1054C00038BD00BF0020024000630258002D3101AA
:1054D00000230240105E5F00EFA1A0FF0F5E5F009F
:1054E000DF4341FF1FBCBE0030B5002383B00193F2
:1054F000002800F0D080456D0446002D00F0BA80F1
:10550000226893689B0003D59168714B0B409360B0
:105510009368DD0015D46F4B90686F491B6801409C
:105520006E489B0941F08051A0FB030391609B09E9
:105530000193019B2BB1019B013B0193019B002B2C
:10554000F9D19368D80024D4636D012543F010038A
:105550006365A36D2B43A365936813F0040F636D1C
:105560001DD1D9061BD4636D23F4817343F002036C
:1055700063659368DB0728D4594B9A4217D003F52B
:1055800080739A4213D0574B9B68D9071DD4564A53
:1055900015E09368002513F0040F636DE1D0636D8F
:1055A000012543F010032846636503B030BD4C4A23
:1055B0004E4B92689B681343D80706D44C4A9368B5
:1055C000616823F47C130B439360FFF767FB41F2A0
:1055D0000303A1689842237F52D894F815C01A0497
:1055E000206B42EA4C3202430A43012B03D1236A67
:1055F000013B42EA4342636A23B103F47873A16A30
:105600000B431A4323683B49D86801400A43DA60D8
:105610009A6812F0040F9A681CD112071AD4D8683D
:10562000354A217D024042EA8132E16A0A43DA606A
:1056300094F83820012A3AD01A6922F001021A613E
:105640001A692046616B22F070420A431A61FFF723
:1056500089FE2368E268012A21D01A6B22F00F022A
:105660001A63636D284623F0030343F00103636567
:1056700003B030BDFDF7A2FBA56584F850503FE7AD
:105680001029AAD1617D1A0442EA4132216B0A43F2
:1056900042F01C02A9E70125284603B030BD196B72
:1056A000A26921F00F01013A0A431A63D9E7D4E94C
:1056B000102118690A43114901400A43A16C0A43A9
:1056C000E16B42EA014242F001021A61B8E700BF11
:1056D000C0FFFF5F50000024C0FFFF6F632D3E0539
:1056E000002002400060025800630258002102407E
:1056F0000023024003C0F0FFFCBFFFFF1EF800FCC8
:10570000F0B5002383B0019390F85030012B40D0C6
:10571000012304460E46154680F85030FFF7EEFD93
:10572000E8B9676D05F080421B4B06F480311B4DD4
:105730003B401B4F43F00203636523689E6835407E
:1057400015430D4345F000459D609A68002A0FDB24
:10575000636D23F0030343F00103636503E0636DAE
:1057600043F010036365002384F8503003B0F0BDAC
:10577000019A01320192019ABA42E6D9636D002280
:10578000012023F0120384F8502043F010036365D6
:10579000ECE7022003B0F0BDFDEEFFFFC0FFFE3FCF
:1057A000FF955A55F0B490F850200E68012A49D060
:1057B0000346294A01201C6883F85000944208D00F
:1057C0005A6D002142F0200283F850105A65F0BC57
:1057D0007047224DAA6852070AD5A2685A6D012067
:1057E00042F020025A65002283F85020F0BC704736
:1057F000A06810F00400F1D1C6B1DFF868C04F68AE
:10580000DCF8082022F440423A43CCF80820A4688F
:10581000AA682243D40713D48A68DCF80810164318
:105820000F4A0A401643CCF80860DCE70D498A6845
:1058300022F440428A60A068AA680243D00704D5D7
:105840000020D0E70220F0BC70478C683046044A44
:1058500022408A60C7E700BF0020024000210240CA
:10586000E0F0FFFF0023024006494FF6FF0C000264
:10587000054BCA6800F4E06002EA0C0210430343DF
:10588000CB60704700ED00E00000FA051B4BDB68C1
:10589000C3F3022300B5C3F1070E03F1040CBEF1FC
:1058A000040F28BF4FF0040EBCF1060F1AD9033BBA
:1058B0004FF0FF3C0CFA03FC22EA0C024FF0FF3CD5
:1058C00000280CFA0EFC21EA0C0101FA03F141EA6E
:1058D00002010ADB09010A4BC9B2034483F8001331
:1058E0005DF804FB00221346E8E700F00F00090111
:1058F000044BC9B2034419765DF804FB00ED00E0E7
:1059000000E100E0FCEC00E0002807DB00F01F01F4
:1059100001234009024A8B4042F82030704700BF03
:1059200000E100E000280DDB4309012200F01F0028
:105930000549203302FA00F041F82300BFF34F8FEE
:10594000BFF36F8F704700BF00E100E0431EB3F16B
:10595000807F0CD24FF0E022002006494FF0F00C7F
:105960005361072381F823C09061136170470120C0
:10597000704700BF00ED00E0BFF35F8F044B0021D4
:105980005A6A22F480325A62C3F89410704700BFFA
:1059900000ED00E0064B40F00100C3F894005A6AA5
:1059A00042F480325A62BFF34F8FBFF36F8F70475C
:1059B00000ED00E0174A4378C2F89830017821B32F
:1059C000436800B5C2F89C30C37A90F80CC01B063F
:1059D00090F80FE043EA0C7390F80AC00B43817B08
:1059E00043EACC4390F80DC043EA8C4390F809C0D9
:1059F00043EA4143017A43EA0E4343EA0C2343EA74
:105A00004103C2F8A0305DF804FBC2F89C10C2F854
:105A1000A010704700ED00E0704700BF08B5FFF729
:105A2000FBFF08BD0268344B344930B4344D354C6B
:105A3000AA4218BF9A420CBF012300238A4208BF22
:105A400043F001033031A24208BF43F00103303478
:105A50008A4208BF43F001033031A24208BF43F03D
:105A6000010330348A4208BF43F0010301F55C7141
:105A7000A24208BF43F0010304F55C748A4208BFE8
:105A800043F001033031A24208BF43F00103303438
:105A90008A4208BF43F001033031A24208BF43F0FD
:105AA000010330348A4208BF43F001033031A2427F
:105AB00008BF43F001038A4208BF43F0010313B952
:105AC000114B9A4213D1D3B21049114C103BA1FB98
:105AD00003515F2B0F4BC1F3021103EA0203615C18
